:020000040800F2
:10000000D04A002001010008B1130008D101000806
:10001000AD130008A5110008AD1C00080000000089
:1000200000000000000000000000000009160008A9
:10003000A91100080000000053010008391700084A
:100040001B0100081B0100081B0100081B01000820
:100050001B0100081B0100081B0100081B01000810
:100060001B0100081B0100081B0100081B01000800
:100070001B0100081B0100081B0100081B010008F0
:100080001B0100081B0100081B0100081B010008E0
:100090001B0100081B0100081B0100081B010008D0
:1000A0001B0100081B0100081B0100081B010008C0
:1000B0001B0100081B0100081B0100081B010008B0
:1000C0001B0100081B0100081B0100081B010008A0
:1000D0001B010008CD1800081B0100081B010008C7
:1000E0001B0100081B0100081B010008DFF80CD0F1
:1000F00000F0D2FD0048004799110008D04A0020C6
:100100000648804706480047FEE7FEE7FEE7FEE7B1
:10011000FEE7FEE7FEE7FEE7FEE7FEE765180008FC
:10012000ED000008EFF3108072B6704780F310887E
:100130007047344A1368012B04D04FF00103136059
:10014000314A1060314A116031484FF080510160EE
:100150007047EFF3108272B62A48016891B14FF0F0
:10016000000101602848016829B1EFF3098121E904
:10017000F00F00680160254909680968B1E8F00FCF
:1001800081F3098882F310884EF0040E70471F49EE
:1001900008601D494FF0000008601A494FF0010047
:1001A00008601C481C49D0F8002041EA02010160A7
:1001B00017484FF08051016018480068006880F3CC
:1001C000088861B662B6BFF34F8FBFF36F8F704779
:1001D0001EF0040F0CBFEFF30880EFF3098020E955
:1001E000F00F40F804ED1EF0040F0CBF80F30888F8
:1001F00080F3098800B504F057FD5DF804EB4EF07C
:10020000040E70476C4600205843002060430020D5
:1002100004ED00E020ED00E00000FFFF08ED00E04D
:1002200000487047248A000810B50446FFF7F8FF1D
:100230000068005D00F0010010BD10B5431A934244
:1002400009D28318881803E010F8011D03F8011D76
:10025000521EF9D210BD40EA01039B0703D009E00A
:1002600008C9121F08C0042AFAD203E011F8013BA2
:1002700000F8013B521EF9D210BDD2B201E000F8E5
:10028000012B491EFBD270470022F6E710B513463A
:100290000A4604461946FFF7F0FF204610BD421EED
:1002A00012F8013F002BFBD111F8013B02F8013B92
:1002B000002BF9D1704710B5044604E00B7800F824
:1002C000013B03B1491C521EF8D2204610BD421C0E
:1002D00010F8011B0029FBD1801A704710B50022CD
:1002E00000E0521C835C8C5CA34201D1002BF8D14E
:1002F000D8B2E1B2401A10BD034611F8012B00F844
:10030000012B002AF9D11846704730B50546002068
:10031000034600E05B1C934205D2EC5CC85C201AEB
:1003200001D1002CF6D130BDF0B480EA0102D40F27
:100330004200B2EB410F02D20246084611464A0083
:1003400042D0C30DDDB2C1F3C752AD1A202D35DA4C
:10035000C1F3160141F4000204B15242C5F1200676
:1003600002FA06F12A411044B3EBD05F23D0C4B1A6
:10037000012DA0EBC35009DCF0BC4FF0004202EAB3
:10038000C352DBB200F5000000F085BB400000F175
:10039000807000EBC350A0F1807040EAD17049003A
:1003A00009E0490841EAC071A0EBC35000F5000024
:1003B000400800EBC350F0BC00F064BB6142012276
:1003C00002EB4101001BF6E7F0BC704781F00041F1
:1003D000AAE780F00040A7E780EA010210B502F02A
:1003E0000043400022D04A001FD0010E01EB1261F1
:1003F000C0F35600C2F3560240F4000042F400027B
:10040000A0FB022000047F39140400D0401C50EAF5
:10041000124001D44000491EC2B20C0604EBD010B9
:10042000401C4008802A02D003E0002010BD20F0CC
:100430000100002900DA0020184310BD30B480EA22
:10044000010202F0004530F0004221F0004013D0DC
:1004500090B1C30DD40DC2F31601C0F31600E41A17
:1004600041F4000140F400027D34914201D3641C48
:1004700000E04900002C02DA30BC002070474FF445
:1004800000000023914201D3891A034340084FEA38
:100490004101F7D151B1914202D14FF0004105E045
:1004A00002D24FF0010101E06FF0010103EBC450F3
:1004B000284430BC00F0E6BA2DE9FE4F804681EAC0
:1004C0000300C00F0C46009021F0004123F00045CE
:1004D000B8EB0200A94105D24046214690461C4691
:1004E0000B46024623F00040104347D0270DC7F3C8
:1004F0000A00C3F30A510290401A019040286BDAB7
:10050000C3F3130040F4801B0098924620B10023EF
:10051000D2EB030A63EB0B0B01985946C0F1400282
:10052000504600F039FA06460D4650465946019AA3
:1005300000F041FA10EB08006141002487EA1152F3
:1005400084EAE7731A4340D0009A62B3019A012A01
:100550004FEA075215DC001B61EB02014FF000422D
:1005600002EA0752CDE90042001C41F580113246F3
:100570002B4600F0FCFA03B0BDE8F08F4046214660
:10058000F9E7001B61EB0201001C41F58013001824
:100590005B412018A2F5001747EB030140EAD57034
:1005A000B6196D4111E06D084FEA360645EAC0758F
:1005B0004FEA0752001B61EB0201001C41F580115C
:1005C00049084FEA30000019514132462B4603B02A
:1005D000BDE8F04F00F0BCBA0098012240000023B3
:1005E000D0EB020263EBE073009821464FEAE0741F
:1005F000B8EB000061EB0401E9E783F000435BE73F
:1006000081F0004158E72DE9FE4F81EA030404F030
:10061000004421F0004100944FF0000B23F0004310
:1006200050EA01045ED052EA03045BD0C3F30A54DB
:10063000C1F30A552C44A4F2F3340194A0FB0254F4
:10064000C1F3130141F48011C3F3130343F4801386
:1006500001FB024400FB034E840A970A44EA8154DA
:1006600047EA8357A4FB076802958D0A05FB0785B7
:100670004FEA932C04FB0C542705029D4FEA0658C1
:1006800047EA1637B5EB08056EEB070C870E920E9E
:1006900047EA811742EA8312A7FB0201B6EB0B017E
:1006A00064EB00042B0D43EA0C335E1844EB1C5042
:1006B000DA465146E7FB0201C5F313044FEA0B3358
:1006C00043EA14534FEA0432019C43EA0603A4F1BF
:1006D0000C040294009CCDE900B400F048FA03B089
:1006E000BDE8F08F00200146F9E72DE9F04D81EAE1
:1006F000030404F0004B21F0004514464FF0000ABB
:1007000023F0004150EA050220D054EA01021DD036
:10071000C5F30A570246C5F31303C1F31300C1F32F
:100720000A5640F4801543F48013A7EB0608101B0B
:10073000D64608F2FD3873EB050002D308F1010834
:1007400001E092185B41B8F1000F03DA0020014686
:10075000BDE8F08D00204FF48011064684460EE07F
:10076000171B73EB050705D3121B63EB0503064349
:100770004CEA010C49084FEA300092185B4150EAFC
:100780000107EDD152EA030012D082EA040083EAA5
:100790000501084305D0101BAB4106D201220023FE
:1007A00006E000224FF0004302E06FF00102531018
:1007B0001AEB06004CEB085110EB0A0041EB0B0161
:1007C000BDE8F04D00F0C4B9002801DBC0F10040E5
:1007D000002901DBC1F10041814201D801207047AD
:1007E00000207047002801DBC0F10040002901DB38
:1007F000C1F10041814201D20120704700207047C1
:10080000002801DBC0F10040002901DBC1F10041FB
:10081000814201D30120704700207047002801DB8E
:10082000C0F10040002901DBC1F10041814201D942
:10083000012070470020704730B5041E71F100049C
:1008400004DB4FF00044404264EB0101141E73F1DD
:10085000000405DB1C464FF00043524263EB0403E7
:10086000801A994101D3012030BD002030BDC10F55
:1008700080EAE0700844CA079623002100F00BB913
:1008800096230022114600F006B90EB5C10F80EA8A
:10089000E0700844CA07002140F233438DE80E009F
:1008A0000A460B4600F063F903B000BD00F00042B9
:1008B00030F000400AD0C10D01F56071C0F31600A0
:1008C00042EA0151C2084007114370470020014627
:1008D000704701F0004330B421F0004150EA0102BA
:1008E00006D00A0DA2F56072C1F31301002A02DCE2
:1008F00030BC00207047440F44EAC104C100E01836
:1009000030BC00EBC25000F0BDB830B50B4601461C
:1009100000202022012409E021FA02F59D4205D39E
:1009200003FA02F5491B04FA02F52844151EA2F148
:100930000102F1DC30BD2DE9F05F05460020924652
:100940009B4688460646814640241BE02846414691
:100950004746224600F0B8F953465A46C01A91411C
:1009600010D311461846224600F016F82D1A67EBF0
:1009700001084F4622460120002100F00DF817EB38
:1009800000094E41201EA4F10104DFDC4846314637
:100990002A464346BDE8F09F202A04DB203A00FAAD
:1009A00002F1002070479140C2F1200320FA03F3C6
:1009B000194390407047202A06DBCB17203A41FAB2
:1009C00002F043EAE07306E041FA02F3D040C2F1DC
:1009D0002002914008431946704700000FB40B00F5
:1009E00010B58AB00FA900910E994FF00004234A68
:1009F000CC60214CCDE9064200D004236FF00042C8
:100A0000CDE901321E4A089202466B46002000F0F2
:100A1000FFF90AB010BC5DF814FBF0B585B00746CD
:100A20004FF0FF300091CDE901011E460020154630
:100A30000C4604903B466A46314604A8FFF7CEFFB9
:100A400004990346601825B109B1024600E0224628
:100A50002A6000290ED0002B02DD0099814209D0C6
:100A60000094001BCDE901043B466A46314604A8C8
:100A7000FFF7B4FF05B0F0BD49100008671000088B
:100A8000290200080029A8BF7047401C490008BF80
:100A900020F00100704710B4B0FA80FC00FA0CF0AE
:100AA00050EA010404BF10BC704749B1CCF12004E6
:100AB00021FA04F411FA0CF118BF01212143084373
:100AC000A3EB0C01CB1D4FEA00614FEA102042BF9F
:100AD000002010BC704700EBC35010440029A4BF95
:100AE00010BC7047401C490008BF20F0010010BC3A
:100AF0007047F0B4002802DCF0BC00207047C0F35F
:100B0000C751C0F3160040F40000CA0701D14000ED
:100B1000491E3F2202EB6105002211464FF40006F8
:100B200026FA01F31344D418844201D8001B1A4654
:100B30004000491C1729F3DD5100814202D24FF0D9
:100B4000FF3100E0002102EBC550F0BCFFF79ABF77
:100B500010B5141E73F1000408DA401C41F10001C5
:100B600092185B411A4301D120F0010010BD2DE91C
:100B7000F04D92469B4611B1B1FA81F202E0B0FA13
:100B800080F220329046FFF707FF04460F4640EA06
:100B90000A0041EA0B0153465A46084313D0114656
:100BA00053EA010019D0C8F14002504600F08CF819
:100BB00005460E46504659464246FFF7EDFE0843AD
:100BC00005D0012004E020463946BDE8F08D002024
:100BD000054346EAE0762C4337430A986305E40A66
:100BE000A0EB08000022FD0A44EA47540A3002D56F
:100BF00000200146E9E7010510196941DDE90845D2
:100C000000196941BDE8F04DA2E770B521F000433D
:100C100003430CD0C1F30A550024D5EB040564EB63
:100C20000403D617AD1AB34102DB0020014670BDA4
:100C3000201841EB025170BDC1F30A52C1F31301F8
:100C400040F2FF3341F480119A4202DA002001465B
:100C5000704740F233439A42A2F2334202DC5242DE
:100C600000F032B8FFF798BE30B5041E71F10004F1
:100C700004DB4FF00044404264EB0101141E73F1A9
:100C8000000405DB1C464FF00043524263EB0403B3
:100C9000994208BF904230BD1CB5094800900948F0
:100CA00001900546009C06E0E06840F0010394E8EE
:100CB000070098471034AC42F6D3FFF71BFA000048
:100CC0001895000838950008202A04DB203A21FAFC
:100CD00002F00021704721FA02F3D040C2F1200255
:100CE00091400843194670472DE9FF4F087883B0BB
:100CF0009946FF2805D0491C2D2804D00024002047
:100D000008E000200BE00124F9E700EB800003EB92
:100D10004000491C0B78FF2BF7D104B1404200235F
:100D20000293147819461D462D2C01D02B2C04D18A
:100D3000521C2D2C13D000240294AA461478FF2CA8
:100D40000FD00A25A3FB057801FB05814FF0000CAD
:100D500003FB0C11521CE3194AEB0101EEE70124DD
:100D6000EAE7814453EA010002D019F5C87F06DAA8
:100D700003980021C0E9001107B0BDE8F08F0025FD
:100D8000AE4E2F46DFF8B882184600F0CEF9CDE916
:100D90000001B9F1000002DAC9F1000400E00446E4
:100DA0000023A74A1AEB030B42EB045A12E0E007B8
:100DB00007D02A46334638464146FFF724FC07460B
:100DC00088462A46334610461946FFF71CFC05465E
:100DD0000E466410002CEAD1DDE90001B9F1000FE4
:100DE0005A46534606DAFFF780FC3A464346FFF779
:100DF0007CFC05E0FFF707FC3A464346FFF703FC9F
:100E0000029A0AB181F00041039AC2E90001B3E7F6
:100E10002DE9FF4F1F468DB0D7E901464FF0FF384F
:100E20002E2045464FF000090B90B9696D1C0E98B5
:100E30008847396A824688470028F6D1BAF1FF3FD1
:100E40000AD024F4D064002E11DDBAF12B0F08D0A3
:100E5000BAF12D0F0BD102E0404611B08DE744F4FA
:100E60008064B9696D1C0E9888478246761E694673
:100E7000600501D52D2000E02B208DF8000001F148
:100E8000010B0DF1200809E0B9696D1C0E98884727
:100E900082460F9844F40074761E0560002E02DD31
:100EA000BAF1300FF0D00B998A453ED144F080045E
:100EB00006E00F99681CA9F1010944F40074086068
:100EC000B9696D1C761E0E98884782463028F0D08E
:100ED0002BE00B998A4505D1200603D444F0800409
:100EE000761E18E0504606F02BFC08B30DF11302F5
:100EF000761EAAF1300044F40074934506D20BF834
:100F0000010B200607D5A9F1010003E0200602D459
:100F100009F101008146A00502D50F99681C0860FF
:100F2000B9696D1C0E9888478246002ED1DC53E0CB
:100F3000002E51DDBAF1650F02D0BAF1450F4BD149
:100F4000A00549D5B9696D1C24F44074761E0E982D
:100F500088478246002E0CDD2B2804D0BAF12D0FD5
:100F600007D144F48074B9696D1C0E988847824695
:100F7000761EE00501D52D2100E02B2108F8011B8C
:100F8000CDF82C8021E00DF12901761E44F4007487
:100F900088450CD2AAF1300010F0FF0088F800005C
:100FA00002D10B99884509D908F1010806E0E0054E
:100FB00001D5244801E042F20F708146B9696D1CE9
:100FC0000E98884782460F980560002E04DD504633
:100FD00006F0B6FB0028D6D1F9690E988847FF20A5
:100FE0008BF8000088F800000020069007904B4620
:100FF0006A4608A906A8FFF777FEA00502D46FF09D
:1010000001002AE714F0240F0AD0E00714D1DDE92B
:1010100006123868031D3B600068C0E900120BE04F
:10102000DDE90601FFF755FC0146E00704D1386809
:10103000021D3A600068016028460EE70000144077
:101040000000F03FF1D8FFFF426842B1016811F89B
:10105000013B23B1521EC0E900121846704701211E
:10106000C160881E704742685AB1C368016843B9BD
:1010700083688B4205D0491E521CC0E90012002033
:1010800070474FF0FF3070472DE9F04D00231A46AE
:101090001B1A8A4103DB00200146BDE8F08DC1F335
:1010A0000A52C1F3130141F480154FF0000BD10730
:1010B00002D100186D41521E0027044640F2FF1174
:1010C000384601EB620A3E468046024600204FF455
:1010D0008011FFF7F9FDC2197141BB1846EB010001
:1010E000B4EB030C75EB000C04D3E41A65EB0005BC
:1010F00017460E46241908F101006D418046342838
:10110000E3DDF91946EB0600091BA84103D24FF0B5
:10111000FF32134601E0002213461BEB070046EBAB
:101120000A51BDE8F04DFFF713BD0EB540F2334252
:1011300002920022CDE900221346FFF718FD03B00A
:1011400000BD70B58C1810F8015B15F0070301D1D4
:1011500010F8013B2A1106D110F8012B03E010F81A
:10116000016B01F8016B5B1EF9D12B0705D400233D
:10117000521E0DD401F8013BFAE710F8013BCB1ADF
:10118000921C03E013F8015B01F8015B521EF9D5D4
:10119000A142D8D3002070BD80B505F01DFE00200F
:1011A00080BD0000FFE7FEE77047000088B00790B1
:1011B0000691002005900490039002900190009009
:1011C0000698C07800F00F0005900698C078C00619
:1011D000002806D5FFE70698817805980843059012
:1011E000FFE70698007800284BD0FFE707980068D3
:1011F000019000200390FFE7039807283DD8FFE700
:1012000003990120884002900698008802990840BE
:1012100004900498029988422AD1FFE7039880003D
:10122000029002990F20884000900099019888430D
:1012300001900598029900FA01F101980843019084
:101240000698C078282806D1FFE703990120884036
:10125000079948610BE00698C078482806D1FFE757
:1012600003990120884007990861FFE7FFE7FFE73E
:10127000FFE7039801300390BEE7019807990860E3
:10128000FFE706980088B0F5807F50DBFFE70798FE
:101290004068019000200390FFE70398072842D898
:1012A000FFE7039800F108010120884002900698AA
:1012B00000880299084004900498029988422DD130
:1012C000FFE703988000029002990F208840009069
:1012D00000990198884301900598029900FA01F15C
:1012E0000198084301900698C078282808D1FFE7A4
:1012F000039800F108010120884007994861FFE741
:101300000698C078482808D1FFE7039800F1080143
:101310000120884007990861FFE7FFE7FFE703988E
:1013200001300390B9E7019807994860FFE708B0DA
:101330007047000082B00190ADF8021000208DF8D7
:10134000010001988068BDF80210084204D0FFE750
:1013500001208DF8010003E000208DF80100FFE777
:101360009DF8010002B0704782B00190ADF8021004
:10137000BDF802000199486102B0704782B0019047
:10138000ADF80210BDF802000199086102B0704783
:1013900081B0009000994FF6FF70088000990220FC
:1013A000887000990420C87001B07047FFE7FEE71D
:1013B0007047000084B003900020029001900F203D
:1013C00000900398C078B8B3FFE74EF60C50CEF209
:1013D00000000068C043C0F3022002900298C0F1F0
:1013E0000400019000980299C8400090039840784A
:1013F00001998840029003988078009901400298F2
:10140000084302900298000102900298039909781B
:101410004EF20042CEF2000288540398027802F0A5
:101420001F01012088401C2101EAD2014EF2001266
:10143000CEF2000288500EE00398027802F01F01FD
:10144000012088401C2101EAD2014EF28012CEF226
:1014500000028850FFE704B07047000082B001909E
:101460008DF803109DF8030048B1FFE7019A41F29F
:101470001801C4F2020108681043086008E0019AEC
:1014800041F21801C4F20201086890430860FFE7C6
:1014900002B0704786B0059000200490039002903F
:1014A000019041F20400C4F20200006800F00C0058
:1014B00004900498009040B1FFE7009804280BD0F6
:1014C000FFE7009808280ED047E0059941F2002078
:1014D000C0F27A00086047E0059941F20020C0F2AE
:1014E0007A00086040E041F20400C4F202000168A2
:1014F00001F470110391006800F4803002900399A8
:10150000022000EB91400390029848B9FFE703984E
:1015100040F60011C0F23D014843059908601BE008
:1015200041F20400C4F2020000688003002809D5DB
:10153000FFE7039840F60011C0F23D0148430599CA
:10154000086008E0039841F20021C0F27A014843A4
:1015500005990860FFE7FFE706E0059941F20020E2
:10156000C0F27A000860FFE741F20400C4F2020012
:10157000016801F0F0010491049909090491049AA9
:1015800048F64421C0F600018A5C0192059B1A6866
:10159000DDF804C022FA0CF25A60026802F4E0623C
:1015A0000492049A120A0492049A8A5C0192059B9E
:1015B0005A68DDF804C022FA0CF29A60026802F45C
:1015C00060520492049AD20A0492049A895C0191AE
:1015D000059A5168019BD940D160006800F44040F1
:1015E00004900498800B0490049948F63020C0F6CB
:1015F0000000405C01900599C868019AB0FBF2F0C8
:10160000086106B0704700007047000080B500F028
:1016100001F880BD84B000200390029041F20001E7
:10162000C4F20201086840F480300860FFE741F22C
:101630000000C4F20200006800F400300290039839
:1016400001300390FFE702990020019039B9FFE7CC
:101650000398B0F5A06018BF01200190FFE7019842
:10166000C0070028E3D1FFE741F20000C4F2020006
:1016700000688003002803D5FFE70120029002E004
:1016800000200290FFE70298012851D1FFE742F2C3
:101690000001C4F20201086840F010000860086808
:1016A00020F003000860086840F00200086041F282
:1016B0000401C4F20201009108680860086808602B
:1016C000086840F480600860086820F47C100860B6
:1016D000086840F4E810086041F20001C4F2020119
:1016E000086840F080700860FFE741F20000C4F233
:1016F000020000688001002801D4FFE7F5E741F20D
:101700000401C4F20201086820F0030008600868C0
:1017100040F002000860FFE741F20400C4F202005A
:10172000006800F00C00082801D0FFE7F4E700E0B3
:10173000FFE704B07047000080B503F017FF80BDDD
:1017400084B0002003900290019041F20400C4F2A2
:101750000200006800F00C0003900398009040B174
:10176000FFE7009804280ED0FFE70098082814D05F
:1017700056E040F20401C2F2000141F20020C0F242
:101780007A00086056E040F20401C2F2000141F222
:101790000020C0F27A0008604CE041F20400C4F27C
:1017A0000200016801F470110291006800F48030B9
:1017B00001900299022000EB91400290019860B9DB
:1017C000FFE7029840F60011C0F23D01484340F2A5
:1017D0000401C2F20001086021E041F20400C4F2F9
:1017E00002000068800300280CD5FFE7029840F64D
:1017F0000011C0F23D01484340F20401C2F2000171
:1018000008600BE0029841F20021C0F27A014843DF
:1018100040F20401C2F200010860FFE7FFE709E0BF
:1018200040F20401C2F2000141F20020C0F27A004D
:101830000860FFE741F20400C4F202000068C0B291
:10184000010948F63420C0F60000405C0390039A7A
:1018500040F20401C2F200010868D040086004B000
:101860007047000080B541F20002C4F20202106825
:1018700040F00100106041F20401C4F20201086866
:101880000023CFF6FF031840086010684FF6FF737F
:10189000CFF6F66318401060106820F480201060C6
:1018A000086820F4FE00086041F20801C4F2020159
:1018B0004FF41F000860FFF7A9FE4EF60851CEF264
:1018C00000014FF00060086080BD000080B582B06C
:1018D0004FF0FF30019003F0DBFA43F60000C4F252
:1018E000010040F2255100F071F898B3FFE743F68C
:1018F0000000C4F20100202100F046F850B3FFE7D9
:10190000FFE74FF0FF30019043F60000C4F2010002
:10191000202100F039F840B1FFE743F60400C4F29B
:1019200001000088C0B20190FFE70198013008B9BA
:10193000FFE708E09DF8041044F2C060C2F2000026
:1019400003F0AEFEDDE744F27C60C2F2000004F07A
:101950005BF8FFE703F0AEFA02B080BD82B0019001
:101960008DF803109DF8030030B1FFE701998889D5
:1019700040F40050888105E00199888920F40050E6
:101980008881FFE702B0704782B00190ADF8021085
:1019900000208DF80100BDF80200B0F5007F01D1F4
:1019A000FFE7FFE701980088BDF802100840000437
:1019B00020B1FFE701208DF8010003E000208DF841
:1019C0000100FFE79DF8010002B0704786B0059066
:1019D000ADF8121000200390029001908DF80300E2
:1019E000BDF8120040F66A11884201D1FFE7FFE717
:1019F0009DF8120040090190BDF8120000F01F0090
:101A0000029002990120884002900198012806D195
:101A1000FFE70598818902980840029010E001983C
:101A2000022806D1FFE70598018A02980840029033
:101A300005E00598818A029808400290FFE7FFE7D9
:101A40009DF81300039003990120884003900598A6
:101A50000188039808400390029838B1FFE7039883
:101A600020B1FFE701208DF8030003E000208DF88E
:101A70000300FFE79DF8030006B0704786B00590AD
:101A8000ADF812108DF81120002003900290019003
:101A90000090BDF8120040F66A11884201D1FFE7BC
:101AA000FFE7059800909DF8120040090390BDF8EB
:101AB000120000F01F00029002990120884001905E
:101AC0000398012804D1FFE700980C3000900CE047
:101AD0000398022804D1FFE700981030009003E03B
:101AE000009814300090FFE7FFE79DF8110030B137
:101AF000FFE7019A009908681043086005E0019A21
:101B00000099086890430860FFE706B0704700003E
:101B100080B58CB00B900A91002009900890079036
:101B2000069005900A98808908B1FFE7FFE70B98B7
:101B300005900B98008A099009984CF6FF710840AF
:101B400009900A98C18809980843099009980B9947
:101B500008820B988089099009984EF6F311084085
:101B600009900A9988880A8910434989014309988C
:101B70000843099009980B9988810B98808A0990ED
:101B800009984FF6FF41084009900A988189099801
:101B90000843099009980B9988826846FFF77AFCF8
:101BA000059843F60001C4F20101884203D1FFE722
:101BB0000398089002E002980890FFE70B9880894C
:101BC000000400280AD5FFE70898192148430A991C
:101BD00009684900B0FBF1F0079009E00898192165
:101BE00048430A9909688900B0FBF1F00790FFE7C4
:101BF000079848F21F51C5F2EB11A0FB01016FF0ED
:101C00000F0000EA51000990079A09980009642121
:101C100000FB112006900B9880890004002810D545
:101C2000FFE70699322000EBC10048F21F51C5F2D0
:101C3000EB11A0FB0110C0F3421109980843099071
:101C40000FE00699322000EB011048F21F51C5F257
:101C5000EB11A0FB0110C0F3431109980843099050
:101C6000FFE709980B9908810CB080BD82B0019004
:101C7000ADF80210BDF802006FF35F200199888073
:101C800002B0704781B0009000994FF41650086080
:101C90000099002088800099C88000990881009AE6
:101CA0000C2151810099888101B07047FFE7FEE760
:101CB00082B0009000980138B0F1807F03D3FFE735
:101CC000012001901AE0009801384EF21401CEF282
:101CD000000108604EF62351CEF20001FF2008708B
:101CE0004EF21801CEF20001002008604EF2100200
:101CF000CEF20002072111600190FFE7019802B0C7
:101D00007047000082B00090009818B9FFE70020EB
:101D1000019033E09DF8000050B1FFE79DF80010FE
:101D200048F65420C0F60000405C0130019025E0E8
:101D30009DF8010050B1FFE79DF8011048F65420CE
:101D4000C0F60000405C0930019017E09DF80200E9
:101D500050B1FFE79DF8021048F65420C0F600008D
:101D6000405C1130019009E09DF8031048F65420C2
:101D7000C0F60000405C19300190FFE7019802B006
:101D80007047000082B0019000910098B0F1FF3FD1
:101D900011D8FFE70098B0F5803F0CD3FFE701981A
:101DA00000680099884205D2FFE701990868013070
:101DB0000860FFE72AE0BDF8020088B9FFE7009855
:101DC000B0F5807F0CD3FFE7019800880099884226
:101DD00005D2FFE70199088801300880FFE714E089
:101DE0000098FF280FD8FFE7009860B1FFE701983F
:101DF00000780099884205D2FFE701990878013000
:101E00000870FFE700E0FFE7FFE7FFE702B0704779
:101E100080B502F05BFE002080BD0000704700002E
:101E200080B582B0019002F063FE02B080BD000078
:101E300080B584B0039003988168002001908847A2
:101E4000039801694069884703984168012002901E
:101E50008847039801694069884701980399496850
:101E600088470398016940698847029803998968FF
:101E7000884704B080BD000080B582B00190019811
:101E8000816801200090884701980169406988476E
:101E90000098019949688847019801694069884715
:101EA0000198016940698847019841680020884786
:101EB00001980169406988470098019989688847B5
:101EC00002B080BD80B582B0019008208DF803007B
:101ED00000208DF802000198816801208847FFE703
:101EE0009DF80300411E8DF8031018B3FFE79DF81D
:101EF000020040008DF802000198416800208847E8
:101F00000198016940698847019841680120884724
:101F100001980169406988470198C068804738B1D5
:101F2000FFE79DF8020040F001008DF8020000E09C
:101F3000FFE7D5E7019841680020884701980169CB
:101F4000406988479DF8020002B080BD80B582B02C
:101F500001908DF8031008208DF80200FFE79DF82E
:101F60000200411E8DF8021050B3FFE7019841684E
:101F70000020884701980169406988479DF803005F
:101F80000006002805D5FFE70198816801208847F1
:101F900004E00198816800208847FFE79DF803006E
:101FA00040008DF803000198016940698847019855
:101FB0004168012088470198016940698847CEE758
:101FC0000198416800208847019801694069884765
:101FD00002B080BD80B584B0029002988168012073
:101FE00001908847019802994968884702980169D9
:101FF000406988470298C068804720B9FFE70220FF
:102000008DF80F0014E00298816800200090884746
:102010000298016940698847009802994968884791
:10202000029801694069884700988DF80F00FFE722
:102030009DF80F0004B080BD80B584B00390039874
:102040008168002001908847019803994968884772
:10205000039801694069884703984168012002900C
:1020600088470398016940698847029803998968FD
:102070008847039801694069884704B080BD000023
:1020800080B584B002900298816801200190884751
:102090000198029949688847029801694069884710
:1020A0000298C068804740B1FFE70298416800206D
:1020B000884703208DF80F000CE00298416800204B
:1020C00000908847029801694069884700988DF818
:1020D0000F00FFE79DF80F0004B080BD80B582B00F
:1020E0000190019800681C380090009804F0BAF83C
:1020F000002002B080BD000080B586B0059004913C
:102100008DF80F20049804F01FF99DF80F00014688
:10211000009120B1FFE70098012806D032E0059831
:1021200004991C3102F070FF2DE0059800680290C0
:10213000FFE702980599884218D0FFE702981C38FB
:102140000190049890F83D00019991F83D10884263
:1021500007DAFFE701981C3004991C3102F054FFA4
:1021600004E0FFE7029800680290E2E70298059910
:10217000884206D1FFE7059804991C3102F044FF1C
:10218000FFE700E0FFE7002006B080BD80B582B029
:10219000019001981C3002F0C7FE002002B080BD03
:1021A00080B592B010900F910E9200200C90FFE736
:1021B00010980C99415C00202029029010D0FFE774
:1021C00010980C99415C00200929029008D0FFE783
:1021D0000C990F9A0020914238BF01200290FFE72E
:1021E0000298C00720B1FFE70C9801300C90DFE7A0
:1021F0000C9820B9FFE74FF0FF30119027E01098BE
:102200000C9902F0DFF80B900B9820B9FFE74FF024
:10221000FF3011901BE003A801900021202203F061
:102220006DF8019A10980F9902F02EF90D900D9803
:1022300020B9FFE74FF0FF30119008E00B9A0D989E
:1022400003A990470E99086000201190FFE71198AC
:1022500012B080BD80B584B0039044F26850C2F2E1
:1022600000000068FFF74EFD01380190019944F22B
:102270006840C2F2000050F831001C38029001980A
:1022800003990860029804B080BD000080B582B058
:1022900004F00EF80190FDF745FF0090019803F05F
:1022A00073FB01984C3004F095F90199042081F8F2
:1022B0003C00019803F042FF0098FDF737FF03F060
:1022C0004DFA02B080BD000080B588B084460D98FC
:1022D0000C98DDF82CE0DDF828E0CDF81CC0069164
:1022E000059204938DF80F0007981C3002F02CFE25
:1022F00005980799886204980799C8620A9807990F
:1023000008630B98079948630799086B4A6B232168
:1023100002F0F4FF079B986AD96A1A6B5B6B1A4448
:10232000043A42F28D23C0F6000302F073FD0799D0
:1023300048629DF80F00079981F83D000798002139
:10234000029101640D98079A50640D98079A906461
:1023500007988163079880F83C100798C0F88010B0
:102360000798C0F88410079B03F14C006A4651603F
:10237000116042F28932C0F60002194604F042F9B7
:10238000029808B080BD000080B584B00390039827
:102390000290FDF7C7FE019002996FF0010088637B
:1023A00002981C3002F0C8FE029803F09DFA0198D2
:1023B000FDF7BCFE03F0D2F904B080BD80B586B055
:1023C00084460898CDF814C00491039202938DF8C6
:1023D00007009DF80700059948740599487C00F0AE
:1023E000FE0048740498059948620398059988622C
:1023F0000599002008630299059AD1620090FFE7D1
:10240000009800280CDCFFE70598009900EBC1005C
:102410001C3002F0A1FDFFE7009801300090EFE7CB
:1024200006B080BD80B582B0019000200090FFE72B
:10243000009800280CDCFFE70198009900EBC10030
:102440001C3002F089FEFFE7009801300090EFE7B2
:1024500002B080BD80B586B0059004910020039045
:102460000290FFE70298049988420DD2FFE7039893
:1024700005990A1D05920968FDF756FF0390FFE7CD
:10248000029801300290EDE7039801900498FEF75E
:10249000F7F901460198FDF7D1FF06B080BD0000B5
:1024A00082B0019000200090FFE7009801998842D7
:1024B00005D2FFE7FFE7009801300090F5E702B092
:1024C0007047000080B582B0009000980068A0B10D
:1024D000FFE70098406880B1FFE70098C06860B1EE
:1024E000FFE70098806840B1FFE70098006920B1DD
:1024F000FFE70098406920B9FFE701208DF8070049
:1025000006E000980068804700208DF80700FFE78C
:102510009DF8070002B080BD80B586B0844608985B
:10252000CDF810C08DF80F108DF80E2002938DF8A5
:10253000070004980068A0B1FFE70498406880B1E4
:10254000FFE70498C06860B1FFE70498806840B175
:10255000FFE70498006920B1FFE70498406920B9BB
:10256000FFE701208DF817008FE001208DF80600AD
:102570000498FFF72FFD8DF806009DF8060028B19E
:10258000FFE79DF806008DF817007EE004989DF89F
:102590000F104900C9B2FFF7D9FC0498FFF770FD8E
:1025A0008DF806009DF8060040B1FFE70498FFF79C
:1025B00043FD9DF806008DF8170066E004989DF82D
:1025C0000E10FFF7C3FC0498FFF75AFD8DF80600C4
:1025D0009DF8060040B1FFE70498FFF72DFD9DF838
:1025E00006008DF8170050E00498FFF725FD0498C9
:1025F000FFF7F0FC8DF806009DF8060028B1FFE714
:102600009DF806008DF817003FE004989DF80F1024
:1026100049000131C9B2FFF799FC0498FFF730FD7A
:102620008DF806009DF8060040B1FFE70498FFF71B
:1026300003FD9DF806008DF8170026E0FFE79DF8E2
:102640000700D8B1FFE70498FFF73CFC0299087037
:102650009DF80700012804D1FFE70498FFF70CFC60
:1026600003E00498FFF7E4FBFFE7029801300290D3
:102670009DF8070001388DF80700E0E70498FFF7A0
:10268000DBFC00208DF81700FFE79DF8170006B06F
:1026900080BD000080B58EB000200490089044F208
:1026A000C060C2F2000044F2B061C2F20001102228
:1026B00002F0D2FF049B44F27C60C2F2000049F2B7
:1026C0004401C0F600011A4603F084F90DA80290F7
:1026D000FEF75EFE09A80590FFF7D4FA44F2040065
:1026E00001210791FEF7BAFE02994FF40070ADF890
:1026F0003400032003908DF8360018208DF8370041
:1027000040F60000C4F201000190FEF74FFD019871
:1027100002994FF48062ADF8342004228DF83720FE
:10272000FEF744FD0399079825228DF820208DF8A7
:1027300021108DF822108DF8230008A8FEF73AFE2C
:10274000049805994FF4E1320992ADF82800ADF8EC
:102750002A00ADF82C00ADF830000C20ADF82E00AA
:1027600043F60000C4F201000690FFF7D1F9069885
:10277000079A40F22551FFF781F906980799FFF76C
:10278000EDF80EB080BD000080B586B005900491D4
:1027900000200390FFE703980499013988423DD255
:1027A000FFE700208DF80B000190FFE70198049AE5
:1027B0000399C9431144884226D2FFE70598019A3C
:1027C00000EB820150F822004968FDF7FDFFB0B927
:1027D000FFE701208DF80B000598019950F82100C2
:1027E00000900599019A01EB8200406841F82200AF
:1027F00000980599019A01EB82014860FFE7FFE725
:10280000019801300190D1E79DF80B0008B9FFE76E
:1028100004E0FFE7039801300390BCE706B080BDF9
:1028200080B582B048F63750C0F6000002F054FB85
:102830004EF62950CEF200000190017848F6CC60A7
:10284000C0F6000002F048FB01980078C00738B1DC
:10285000FFE748F6B760C0F6000002F03DFBFFE777
:102860004EF62950CEF2000000788007002807D5E8
:10287000FFE748F6AC60C0F6000002F02DFBFFE772
:102880004EF62950CEF2000000784007002807D508
:10289000FFE748F6AA60C0F6000002F01DFBFFE764
:1028A0004EF62950CEF2000000780007002807D528
:1028B000FFE748F6A060C0F6000002F00DFBFFE75E
:1028C0004EF62950CEF200000078C006002807D549
:1028D000FFE748F6A260C0F6000002F0FDFAFFE74D
:1028E0004EF62950CEF200000078000600280CD5E4
:1028F000FFE74EF63850CEF20000016848F643502C
:10290000C0F6000002F0E8FA06E049F22630C0F610
:10291000000002F0E1FAFFE702B080BD80B59AB096
:1029200018908DF85F1016921593189820B9FFE74C
:1029300000208DF86700E8E0002014901390FFE776
:1029400013989DF85F100139884280F2DA80FFE722
:102950001898139900EBC1014868C968FDF742FF58
:10296000002841D1FFE7139838B9FFE71698159969
:10297000086003208DF86700C7E018980F9013993E
:102980000D9100EBC101486851F8082C0E9251F8E6
:10299000041CFDF71BFD0D9A0E9903460F9810932A
:1029A00050F83200FDF712FD01461098FDF746FD84
:1029B00014901498119016981899139A01EBC2026A
:1029C00052F8081C52F8042C1292FDF7FFFC014645
:1029D0001198FDF701FD1299FDF7A6FC1599086005
:1029E00003208DF8670090E016981899139A51F813
:1029F0003210FDF7F7FE002840D1FFE7169818992E
:102A0000139A01EBC2018968FDF708FFB0BBFFE72D
:102A1000189807901399069100EBC10041688268ED
:102A20000892C068FDF7D2FC069A079903460898F9
:102A3000099351F83210FDF7C9FC01460998FDF7DA
:102A4000FDFC149014980B9016981899139A01EBAA
:102A5000C2030A9351F83210FDF7B8FC0A9A0146F6
:102A60000B9852680C92FDF7B7FC0C99FDF75CFCD3
:102A70001599086001208DF8670046E013989DF8CD
:102A80005F100139884237D1FFE7189802901399F7
:102A9000009100EBC101486851F8082C019251F8EF
:102AA000041CFDF793FC009A0199034602980393D6
:102AB00050F83200FDF78AFC01460398FDF7BEFC92
:102AC00014901498049016981899139A01EBC20266
:102AD00052F8081C52F8042C0592FDF777FC0146C9
:102AE0000498FDF779FC0599FDF71EFC159908601F
:102AF00002208DF8670008E0FFE71398013013907B
:102B00001EE700208DF86700FFE79DF867001AB008
:102B100080BD000080B586B00490039102920498B5
:102B200020B9FFE700208DF817000FE0049A039901
:102B3000106852680192FDF74FFC0199FDF7F4FB14
:102B40000299086001208DF81700FFE79DF8170033
:102B500006B080BD80B549F2A930C0F6000002F091
:102B6000BBF9002080BD000080B584B002900191C7
:102B7000029802283BD1FFE70198406849F2D10151
:102B8000C0F60001FDF7AAFB18B9FFE700F09AFFB5
:102B90002AE00198406849F2D131C0F60001FDF702
:102BA0009DFB18B9FFE701F079F81CE00198406837
:102BB00049F2CD31C0F60001FDF790FB18B9FFE7EF
:102BC00000F0E4FE0EE00198406849F2DC31C0F606
:102BD0000001FDF783FB18B9FFE700F02FFE00E0CE
:102BE00006E0FFE7FFE7FFE70020039027E0FFE7AD
:102BF00049F28010C0F6000002F06EF949F274103C
:102C0000C0F6000002F068F949F29D20C0F600000D
:102C100002F062F949F2D320C0F6000002F05CF93C
:102C200049F2B820C0F6000002F056F949F2EC2053
:102C3000C0F6000002F050F900200390FFE703986F
:102C400004B080BD83B00290019101980A2815D18B
:102C5000FFE7029800684CF6CD42CCF6CC42A0FBD0
:102C60000231C90801EB8101A0EB410000900299FB
:102C70000868A0FB0220C008086009E0029800680C
:102C800000F00F0000900299086800090860FFE753
:102C9000009803B07047000080B582B044F27860BD
:102CA000C2F20000006890F829004008C00740B94F
:102CB000FFE740F2C010C2F2000000210170019055
:102CC0002DE040F2C420C2F20000006870B1FFE7BE
:102CD00040F2C420C2F20000016840F2C010C2F20B
:102CE00000004FF48072FDF7E6FA0AE040F2C010EF
:102CF000C2F2000049F26541C0F60001FDF7FCFA9E
:102D0000FFE740F2C010C2F20000009049F26A41B1
:102D1000C0F60001FDF7C3FA00980190FFE70198A3
:102D200002B080BD80B501F053FF80BD81B000903E
:102D30009DF8002044F27860C2F20000016891F82A
:102D4000290002F0010200F0FD0040EA420081F893
:102D5000290001B07047000082B0019000910198F5
:102D600040F23011C2F200010860009840F23411C4
:102D7000C2F20001086002B07047000080B586B062
:102D80000020049049F29440C0F6000049F2185126
:102D9000C0F60001FFF7E0FF0120802101F01AFEDC
:102DA000014644F27860C2F200000160006850B948
:102DB000FFE749F25040C0F6000002F08DF84FF0F6
:102DC000FF30059030E069460A2048601520086011
:102DD00049F26F40C0F6000042F63161C0F60001D2
:102DE000002202924FF4806303F048F9029B0390A3
:102DF00044F27860C2F20000006849F27B41C0F6FC
:102E000000011A4602F0E6FD0120FFF78FFF03984C
:102E100038B1FFE7049820B9FFE7039803F07AFA86
:102E2000FFE700200590FFE7059806B080BD000091
:102E300080B58CB00B9044F27860C2F2000001685B
:102E400091F8290040F0010081F82900FFF724FFE4
:102E500002F042F8FFE7FFF765FF0A900A98B0F129
:102E6000FF3F01DCFFE7F6E70A981B2809D1FFE7DF
:102E700044F27860C2F200000168012081F8280065
:102E8000E9E744F27860C2F20000006890F8280098
:102E9000012816D1FFE70A985B2809D1FFE744F221
:102EA0007860C2F200000168022081F82800D2E7B1
:102EB00044F27860C2F200000168002081F8280026
:102EC00069E044F27860C2F20000006890F82800DF
:102ED00002285FD1FFE744F27860C2F20000016887
:102EE000002081F828000A98412801D1FFE7B2E7C5
:102EF0000A98422801D1FFE7ADE70A9844281BD180
:102F0000FFE744F27860C2F200000068B0F87E008B
:102F100088B1FFE749F24E40C0F6000001F0DCFF47
:102F200044F27860C2F200000168B1F87E00013816
:102F3000A1F87E00FFE78EE70A98432826D1FFE735
:102F400044F27860C2F200000168B1F87E00B1F886
:102F50007C10884219DAFFE744F27860C2F2000080
:102F600006900068B0F87E10084490F82A1049F2E4
:102F70006C40C0F6000001F0AFFF06980168B1F8A0
:102F80007E000130A1F87E00FFE764E7FFE7FFE77E
:102F9000FFE7FFE7FFE7FFE70A9820B1FFE70A989E
:102FA000FF2801D1FFE756E70A9809282FD1FFE74C
:102FB00000200990FFE7099844F27861C2F200010D
:102FC0000968B1F87E1088420BDAFFE749F24E40FB
:102FD000C0F6000001F080FFFFE70998013009907A
:102FE000E9E744F27860C2F20000059000682A30F8
:102FF00003F054FF059800682A30FDF768F9059939
:103000000A68A2F87C000968A1F87E0023E70A9804
:103010007F2804D0FFE70A98082877D1FFE744F219
:103020007860C2F200000068B0F87E0008B9FFE7DF
:1030300011E744F27860C2F200000268B2F87C1036
:103040000139A2F87C100268B2F87E100139A2F8AA
:103050007E100168B1F87C00B1F87E10884242DD34
:10306000FFE744F27860C2F2000004900268B2F810
:103070007E30D11801F12A002B31B2F87C20D21A0F
:1030800002F0FAF804980168B1F87C200A440021A3
:1030900082F82A100068B0F87E10084400F12A0176
:1030A00049F24940C0F6000001F016FF049800689C
:1030B000B0F87E000890FFE7089844F27861C2F209
:1030C00000010968B1F87C1088420BDCFFE749F287
:1030D0004E40C0F6000001F0FFFEFFE70898013007
:1030E0000890E9E711E049F24540C0F6000001F020
:1030F000F3FE44F27860C2F200000068B0F87C1081
:103100000144002081F82A00FFE7A4E6FFE7FFE77B
:103110000A980D2804D0FFE70A980A2832D1FFE761
:1031200044F27860C2F20000006890F82900C007FD
:1031300038B1FFE749F22630C0F6000001F0CCFEBE
:10314000FFE744F27860C2F200000290016801F1EA
:103150002A00B1F87C1001F0D3F8FFF79DFD01F0D3
:10316000BBFE029800682A3000210391512202F030
:10317000C5F8029903980A68A2F87C000968A1F8CA
:103180007E0068E644F27860C2F200000068B0F8A1
:103190007C00502809DBFFE744F27860C2F20000AF
:1031A00001680020A1F87C00FFE744F27860C2F2D9
:1031B00000000168B1F87E00B1F87C10884250DA56
:1031C000FFE744F27860C2F2000001900268B2F8B2
:1031D0007E30D11801F12B002A31B2F87C20D21AAE
:1031E00002F04AF801980A990268B2F87E301A444F
:1031F00082F82A10006890F82900C00788B1FFE71C
:1032000044F27860C2F200000068B0F87E10084412
:1032100000F12A0149F27840C0F6000001F05CFE9E
:10322000FFE744F27860C2F200000068B0F87E0068
:103230000790FFE7079844F27861C2F2000109683D
:10324000B1F87C1088420BDAFFE749F24E40C0F635
:10325000000001F041FEFFE7079801300790E9E721
:1032600019E00A9944F27860C2F200000268B2F8EC
:103270007C301A4482F82A10006890F82900C007B0
:1032800040B1FFE70A9949F26C40C0F6000001F036
:1032900023FEFFE7FFE700200A9044F27860C2F2C5
:1032A00000000268B2F87C100131A2F87C100268BC
:1032B000B2F87E100131A2F87E100068B0F87C00F0
:1032C00050280CDBFFE744F27861C2F200010A6883
:1032D0000020A2F87C000968A1F87E00FFE7BAE5AB
:1032E00080B588B0079000200690059007981030B0
:1032F0004FF0FF31FEF746FD07980069012812D113
:10330000FFE707984168406948600798416840694D
:103310000860079908684968C07A08810798416879
:103320000020887277E00798006903280AD3FFE736
:1033300007984168836818685A689B688B604A6080
:103340000860FFE70799486889680068486007983F
:10335000816840690860079908688968C07A0881AF
:103360000798816808684968FDF730F80590059866
:103370000021FDF729FAC8B9FFE70598FDF796FA8D
:10338000039021F000400490079800684068FDF722
:103390008DFA024603980B460499FDF74DFA28B9B9
:1033A000FFE7079881680120887224E005980021D2
:1033B000FDF726FAC8B9FFE70598FDF777FA0190FF
:1033C00021F000400290079800684068FDF76EFA0F
:1033D000024601980B460299FDF72EFA28B9FFE73D
:1033E000079881680220887204E0079881680020AD
:1033F0008872FFE7FFE707980069032805D3FFE716
:10340000079800F00BF8069004E0079880680068C1
:103410000690FFE7FFE7069808B080BD80B58AB048
:103420000990002008900790099881680868496809
:10343000FCF7CCFF079009980068007B002874D146
:10344000FFE7099841688068807A897A884241D18B
:10345000FFE709980C30FF21FEF794FC0798FDF771
:1034600025FA059021F00040069009980068006850
:10347000FDF71CFA024605980B460699FDF7DCF9A4
:1034800030B9FFE709980C30FF21FEF77BFCFFE71E
:103490000999087B0968097A88421ADBFFE70999CC
:1034A0000A68486889680089527A10440881099836
:1034B000016880680089897A884206DBFFE70999FC
:1034C00008688968807A0881FFE7099900200873F5
:1034D000FFE708E0099900200873099908688968DE
:1034E000C07A0881FFE709988068807AB8B1FFE761
:1034F0000998806841680491079903910089FDF754
:10350000B6F901460398FCF767FF4FF06E51FCF7E0
:1035100063FF01460498FCF707FF089004E0099850
:10352000806840680890FFE722E009988068807A08
:10353000C0B1FFE70999086889684968029107994D
:103540000191C07AFDF793F901460198FCF744FF19
:103550004FF06E51FCF740FF01460298FCF7E4FE85
:10356000089004E00998806840680890FFE7FFE74A
:10357000089809998968086008980AB080BD000019
:1035800080B584B069460520C860012088604FF48A
:103590000070486040F25030C2F20000086040F213
:1035A000C820C2F2000049F2C601C0F6000143F291
:1035B000C152C0F60002002302F01CFE04B080BD20
:1035C00080B582B0019000F07BFC012000F02AFC65
:1035D000FFE700F043FC642002F038FEF9E700004A
:1035E00080B540F2C820C2F2000002F093FE80BD18
:1035F00080B586B044F2A860C2F200000068FDF712
:1036000055F90390049144F2AC60C2F200000068E6
:10361000FDF74CF9039A049B8C466946C1F804C037
:10362000086040F24C60C2F20000059049F24D0182
:10363000C0F6000103F008FF059801F04DFC06B04C
:1036400080BD000080B584B0102000900121FDF7FE
:1036500005FF00984FF400510291ADF80C108DF861
:103660000F0003208DF80E0041F20000C4F20100AB
:10367000019003A9FDF79AFD01980299FDF77EFEDE
:1036800004B080BD80B54EF62C50CEF2000000682C
:103690008007002807D5FFE748F66350C0F6000012
:1036A00001F01AFCFFE74EF62C50CEF20000006845
:1036B000400000281FD5FFE74EF62950CEF200004B
:1036C000007818B1FFE7FFF7ABF8FFE74EF6285098
:1036D000CEF20000007818B1FFE700F043FDFFE7ED
:1036E0004EF62A50CEF20000008818B1FFE703F032
:1036F00067FCFFE7FFE74EF62C50CEF200000068B3
:10370000C00F38B1FFE748F67850C0F6000001F06E
:10371000E3FBFFE780BD000080B549F29700C0F6EB
:10372000000001F0D9FB80BD80B586B005908DF812
:103730001310039202939DF8130001F09BFE019079
:103740000198043000900098059908609DF81300D6
:103750000599087203980599486002980599C86010
:1037600005990020086106B080BD000080B58AB0D0
:103770000890079100200690079908610798C06893
:1037800020B1FFE70798007A18B9FFE700200990F9
:1037900050E0079800680390089828B9FFE703985D
:1037A00004900120069002E008980490FFE7FCF7DF
:1037B000B9FC0590069898B9FFE704981438009072
:1037C0000098007C00F07F000799097A884206D0B3
:1037D000FFE70598FCF7AAFC002009902AE0FFE724
:1037E00000200190079840680290FFE70498006865
:1037F000049004980399884203D1FFE700200490C5
:103800000FE0019801300190049802990A1D02927C
:10381000086001980799C968884201D1FFE700E074
:10382000E4E70598FCF782FC019807990861049881
:103830000990FFE709980AB080BD000080B5A0B0EC
:103840000020119049F2DC30C0F600000F901AA859
:10385000052112AA0823FFF767FF10201090109986
:103860000F9A49F2E110C0F6000001F035FB109804
:1038700000F0F2FE49F25810C0F6000001F02CFBF7
:10388000FFE711981AA9FFF771FF119000200E9021
:10389000FFE70E981E9988426EDAFFE70E9912A88C
:1038A00050F8210014380D90FCF73CFC1F900D9847
:1038B000007C00F07F009DF87010884204D0FFE784
:1038C0001F98FCF733FC53E01F98FCF72FFC0D9872
:1038D0000C900C981C3001F0DDFB48BBFFE7109802
:1038E00009900C980A90418D0B91018D08911C3024
:1038F00001F0DAFBDDF820C009990A9B86460B9897
:103900006A46C2F808E0C2F804C0106049F2933079
:10391000C0F60000102201F0DFFA0C981C3003F012
:10392000D5FA49F22630C0F6000001F0D5FA1EE0C3
:10393000109805900C980690418D0791018D049187
:103940001C3001F0B1FBDDF810C00599069B8646DE
:1039500007986A46C2F808E0C2F804C0106049F24D
:10396000B110C0F60000102201F0B6FAFFE7FFE741
:103970000E9801300E908CE7FFE7119800287FF435
:1039800080AFFFE7002020B080BD000080B59CB074
:1039900000200D9049F2BA30C0F600000B9016A836
:1039A00002210EAA0823FFF7BFFE10200C900C99ED
:1039B0000B9A49F2C710C0F6000001F08DFA0C987E
:1039C00000F04AFE49F24310C0F6000001F084FA0C
:1039D000FFE70D9816A9FFF7C9FE0D9000200A9089
:1039E000FFE70A981A99884262DAFFE70A990EA857
:1039F00050F8210014380990FCF794FB1B900998AB
:103A0000007C00F07F009DF86010884204D0FFE742
:103A10001B98FCF78BFB47E01B98FCF787FB09988A
:103A2000089008981C3001F035FB18BBFFE70C9894
:103A3000059008980690818C07911C3001F034FBAA
:103A40000599069B844607986A46C2F804C0106030
:103A500049F28330C0F60000102201F03DFA0898C8
:103A60001C3003F033FA49F22630C0F6000001F0B2
:103A700033FA18E00C98029008980390818C049116
:103A80001C3001F011FB0299039B844604986A469E
:103A9000C2F804C0106049F2A110C0F60000102264
:103AA00001F01AFAFFE7FFE70A9801300A9098E759
:103AB000FFE70D9800287FF48CAFFFE700201CB0D3
:103AC00080BD000080B5BEB000202F9049F2D1002B
:103AD000C0F600002E9038A8012130AA0823FFF775
:103AE00023FE10202D902D992E9A49F23320C0F6F6
:103AF000000001F0F1F92D9800F0AEFD49F2D80078
:103B0000C0F6000001F0E8F9FFE72F9838A9FFF7A9
:103B10002DFE2F9000202C90FFE72C983C99884296
:103B200080F2B280FFE72C9930A850F821001438B9
:103B30002B90FCF7F7FA3D902B98007C00F07F006B
:103B40009DF8E810884204D0FFE73D98FCF7EEFAB4
:103B500096E02B9909A8882201F024FB3D98FCF7F8
:103B6000E5FA2B9808902D99089B93F83D006A463A
:103B7000106049F25030C0F60000102201F0ACF99C
:103B8000089890F83C0000F007008DF81F009DF8A1
:103B90001F00012807D1FFE749F24730C0F60000B7
:103BA00001F09AF932E09DF81F00022807D1FFE7E3
:103BB00049F2B130C0F6000001F08EF925E09DF821
:103BC0001F0038B9FFE749F23530C0F6000001F0B8
:103BD00083F919E09DF81F00042807D1FFE749F297
:103BE0003E30C0F6000001F077F90CE09DF81F00B0
:103BF000032807D1FFE749F2C430C0F6000001F006
:103C00006BF9FFE7FFE7FFE7FFE7FFE70898006BC7
:103C10000690FFE706980078232804D1FFE706986E
:103C200001300690F6E70899D1F824C00A6B4B6B77
:103C30000393886BA2EB0C0C9C44CDF808C0DDF814
:103C400018C0A2EB0C021A444FF0640C02FB0CF2F9
:103C5000B2FBF3F20492896C059102F033F90299F8
:103C6000039A049B86460598EC46CCF804E0CCF811
:103C7000000049F27720C0F6000001F02DF9FFE7BF
:103C80002C9801302C9048E7FFE72F9800287FF40C
:103C90003CAFFFE700203EB080BD000080B596B08D
:103CA0000020079049F2D130C0F60000059010A81E
:103CB0000A2108AA0823FFF737FD1020069006996D
:103CC000059A49F20220C0F6000001F005F90698B5
:103CD00000F0C2FC49F21510C0F6000001F0FCF83B
:103CE000FFE7079810A9FFF741FD07900020049017
:103CF000FFE704981499884257DAFFE7049908A867
:103D000050F8210014380390FCF70CFA1590039832
:103D1000007C00F07F009DF84810884204D0FFE747
:103D20001598FCF703FA3CE01598FCF7FFF90398A7
:103D300002900699029BD86AD3F830C06A46C2F84E
:103D400004C0106049F26930C0F60000102201F092
:103D5000C3F80298407CC00738B1FFE749F2283029
:103D6000C0F6000001F0B8F806E049F25C30C0F699
:103D7000000001F0B1F8FFE70298407C80070028BE
:103D800007D5FFE749F29710C0F6000001F0A4F84C
:103D900006E049F20930C0F6000001F09DF8FFE7A7
:103DA000FFE7049801300490A3E7FFE70798002895
:103DB00097D1FFE702F02AFB014649F21330C0F623
:103DC000000001F089F8002016B080BD80B584B0F5
:103DD00000200390FFF736FCFFF7D2FBFFF700FC53
:103DE000FFE741F20000C4F2010001904FF40051DE
:103DF0000091FDF7C3FA4FF4FA70029002F026FA30
:103E000000990198FDF7B0FA029802F01FFAE8E76E
:103E100080B582B0019000F00FFEFFF7D7FF02B02F
:103E200080BD000080B582B08DF807009DF80710B6
:103E300040F24010C2F2000080F87910002180F8B2
:103E400078107821FCF720FA02F0E0FA40F2BC1179
:103E5000C2F20001086002B080BD000080B540F2EF
:103E60006000C2F2000000F057F840F24010C2F2C9
:103E7000000090F8790008B3FFE702F0C7FA40F2BB
:103E8000BC11C2F200010968401AB0F57A7F14D360
:103E9000FFE740F26000C2F20000816F603040F244
:103EA0004012C2F2000200F033F902F0AFFA40F221
:103EB000BC11C2F200010860FFE7FFE780BD00000F
:103EC00080B503F083F940F28052C2F200024DF255
:103ED0000A70C3F62340106041F26F20C3F68320BE
:103EE00050600120107232205072FF20907200202A
:103EF000D072107340F25051C2F200010A6040F2D9
:103F00007452C2F200024A6040F26852C2F20002E9
:103F10008A60086180BD000080B590B00F900020DD
:103F20000E900D900C900B900A90099008900F98AD
:103F300008B9FFE7E9E00EA80DA903F04FF908B1B1
:103F4000FFE7E2E00E980F9988650D980F99C86514
:103F50000E9940F22060C2F20000037840F2246221
:103F6000C2F2000242F823100D99037840F2386241
:103F7000C2F2000242F823100178013101700E995B
:103F80000F9A91670D990F9AD1670078052818DB71
:103F9000FFE740F22460C2F20000011D14220792E4
:103FA000FCF74BF9079A40F23860C2F20000011D9D
:103FB000FCF743F940F22061C2F2000105200870CD
:103FC000FFE70F980690016E806FFCF7FFF90699E6
:103FD00048660F98406E0021FCF704FC28B9FFE703
:103FE0000F99002081F8800004E00F99012081F8EA
:103FF0008000FFE70F98406EFCF758FC21F000416D
:10400000FCF767FC0C900C9940F25050C2F2000093
:104010004161FFF765F90B900F98C06FFCF746FC04
:104020004FF06632019241F26623C4F27103FCF74D
:1040300043FA019A45F26623C4F27203FCF755FB7A
:10404000FCF747FC04F052FC09904FF07E500A90B8
:104050000B990846FCF768F9FCF728FC4AF2E35292
:10406000CCF29B4204924BF22003C3F6F473059307
:10407000FCF73BFBFCF72DFC04F038FC0A99FCF73D
:10408000ABF90999FCF7A8F9089008980021C4F247
:10409000C8210291FCF7A0F90F9988660F9800F1EA
:1040A0006C03826E0A21FEF739FC0F9901F1500072
:1040B00001F17002C96EFEF72DFD02990F98039071
:1040C000006FFCF7BBF9039948670F98406F40F207
:1040D0009451C2F2000108600F98806FFCF7E6FB74
:1040E000024621F0004310461946FCF7E5F9049A10
:1040F000059BFCF7FAFAFCF7ECFB04F0F7FB40F247
:104100009051C2F200010860FFE710B080BD0000CE
:1041100080B584B00390029101920298019991F8C0
:10412000782041F82200019991F87800013081F857
:104130007800019890F878001E2811DBFFE70198BD
:1041400090F87810FEF720FB019864300421FEF708
:1041500081F9039908600199002081F87900FFE74F
:1041600004B080BD80B582B048F61650C0F600009D
:1041700000F0B2FE4EF62850CEF200000190017819
:1041800048F6E260C0F6000000F0A6FE0198007854
:10419000C00738B1FFE748F67B60C0F6000000F0CA
:1041A0009BFEFFE74EF62850CEF200000078800715
:1041B000002807D5FFE748F67160C0F6000000F060
:1041C0008BFEFFE74EF62850CEF200000078000785
:1041D000002807D5FFE748F69F60C0F6000000F012
:1041E0007BFEFFE74EF62850CEF200000078C006B6
:1041F000002807D5FFE748F69660C0F6000000F0FB
:104200006BFEFFE74EF62850CEF200000078000665
:1042100000280CD5FFE74EF63450CEF200000168BE
:1042200048F65350C0F6000000F056FE06E049F292
:104230002630C0F6000000F04FFEFFE702B080BD60
:1042400080B588B00790002005900490079800780A
:1042500028B9FFE70021084600F0E4F84DE040F2FD
:104260003010C2F2000000680290FFE7029840F2AE
:104270003411C2F200010968884234D2FFE7029883
:10428000006803900798019003990091FCF71FF8CC
:10429000009902460198FCF738F8F8B9FFE705984D
:1042A00038B9FFE7039804900498FCF710F80590DC
:1042B000FFE70498039902F051FE069006980599CD
:1042C000884203DAFFE706980590FFE7039949F271
:1042D0009920C0F6000000F0FFFDFFE7FFE702981D
:1042E0000C300290C2E7049830B1FFE707980499B8
:1042F000059A01F01DFEFFE7FFE708B080BD000052
:1043000080B588B006900591FFE7059900200290DE
:1043100091B1FFE70698017801202029019008D08B
:10432000FFE7069800780938B0FA80F0400901905C
:10433000FFE701980290FFE70298C00738B1FFE756
:10434000069801300690059801380590DDE705983C
:1043500018B9FFE70020079030E00698059904AAF5
:10436000FDF71EFF18B9FFE70498079026E00698AE
:104370000390FFE70398017800202029009007D0E0
:10438000FFE703980078002818BF01200090FFE79E
:104390000098C00720B1FFE7039801300390E9E7D8
:1043A000039900200870069949F2E430C0F6000035
:1043B00000F092FD4FF0FF300790FFE7079808B03C
:1043C00080BD000080B584B0039002910020009071
:1043D00040F23010C2F2000000680190FFE701983F
:1043E00040F23411C2F200010968884217D2FFE797
:1043F000019800680399029AFBF787FF50B9FFE71D
:10440000019800680299405C20B9FFE70198806834
:10441000009004E0FFE701980C300190DFE700987E
:1044200004B080BD80B584B00390029149F21A4077
:10443000C0F6000000F050FD40F23010C2F2000063
:1044400000680190FFE7019840F23411C2F20001C8
:10445000096888420ED2FFE701980168426849F274
:104460003540C0F6000000F037FDFFE701980C3042
:104470000190E8E749F22630C0F6000000F02CFD7C
:10448000002004B080BD000080B58AB0099008917A
:10449000079209980690002005900490FFE7059880
:1044A0000899884280F0D480FFE7FFE706980078FB
:1044B000202807D0FFE706980178002009290290FC
:1044C00008D1FFE70599089A0020914238BF0120E2
:1044D0000290FFE70298C00750B1FFE7069900205D
:1044E0000870069801300690059801300590DDE7C8
:1044F0000498082824D3FFE749F2FC30C0F60000F6
:1045000000F0EAFC00200390FFE70398049988423A
:104510000FD2FFE70798039950F8211049F2414064
:10452000C0F6000000F0D8FCFFE7039801300390CC
:10453000EBE749F22630C0F6000000F0CDFC87E042
:1045400005980899884201D3FFE781E00698007832
:1045500022284BD1FFE706980130069005980130DC
:10456000059006980799049A41F8220004980130B2
:104570000490FFE70698017800202229019008D0D6
:10458000FFE70599089A0020914238BF0120019069
:10459000FFE70198C007C8B1FFE7069800785C28DC
:1045A0000DD1FFE706984078222807D1FFE706984B
:1045B00001300690059801300590FFE7FFE7069867
:1045C00001300690059801300590D3E705980899C9
:1045D000884201D3FFE73BE0069900200870069867
:1045E0000130069005980130059030E00698079953
:1045F000049A41F82200049801300490FFE70698DD
:1046000001780020202900900FD0FFE7069801785C
:1046100000200929009008D0FFE70599089A00209A
:10462000914238BF01200090FFE70098C00738B1E1
:10463000FFE7069801300690059801300590DEE707
:1046400005980899884201D3FFE701E0FFE726E7D4
:1046500004980AB080BD000080B582B00190FFE7E9
:104660000198411E019138B1FFE749F27F30C0F651
:10467000000000F031FCF3E702B080BD84B003908D
:1046800002910398006B02994968084401900298CE
:104690000199884225D0FFE701980078C00700BB48
:1046A000FFE701980399496B88421AD0FFE7039806
:1046B000806B0199884204D1FFE7029803998863CF
:1046C000FFE701990020086001984068029948605E
:1046D00002980399096B401A019A52681144886044
:1046E000FFE70398006B02998968084400900098DE
:1046F000029988421FD0FFE700980078C007D0B920
:10470000FFE70398806B0299884204D1FFE7009885
:1047100003998863FFE702990020086002984068C7
:104720000099486000980399096B401A029A5268F0
:1047300011448860FFE704B07047000080B590B076
:10474000DDF850C0DDF84CC0DDF848C00F900E9188
:104750000D920C93139806901298039014984206A9
:1047600048F6B041C0F6000148F6C140C0F600006E
:10477000002A48BF084605909DF85000C006002852
:1047800005D5FFE7149820F001001490FFE7149876
:10479000C1072020002918BF30208DF82F000020ED
:1047A0008DF82E009DF850008007002823D5FFE7E4
:1047B0000D98B0F1FF3F07DCFFE72D208DF82E00AC
:1047C0000D9840420D9015E09DF8500040070028DC
:1047D00004D5FFE72B208DF82E000AE09DF850004D
:1047E0000007002804D5FFE720208DF82E00FFE702
:1047F000FFE7FFE7FFE7002004900D9840B9FFE7CF
:10480000049A501C04900DF11E013020885414E0CD
:10481000FFE70D9880B1FFE7059802900C990DA86D
:10482000FEF710FA01460298405C049A511C04916C
:104830000DF11E018854ECE7FFE7049813998842B4
:1048400003DDFFE704981390FFE713990398401ADC
:1048500003909DF8500010F0110F21D1FFE79DF853
:104860002E0040B1FFE70398012804DBFFE703981F
:1048700001380390FFE7FFE70398411E03910128E9
:104880000DDBFFE70F980E99884204D2FFE70F99DE
:1048900020200870FFE70F9801300F90ECE7FFE74A
:1048A0009DF82E0088B1FFE70F980E99884205D237
:1048B000FFE79DF82E000F990870FFE70398013875
:1048C00003900F9801300F90FFE79DF85000C0064D
:1048D000002816D4FFE7FFE70398411E0391012843
:1048E0000EDBFFE70F980E99884205D2FFE79DF88F
:1048F0002F000F990870FFE70F9801300F90EBE73A
:10490000FFE7FFE7049813994A1E139288420DDAD5
:10491000FFE70F980E99884204D2FFE70F993020E5
:104920000870FFE70F9801300F90EBE7FFE704995D
:10493000481E049000200129019006DBFFE706983D
:10494000002818BF01200190FFE70198C00780B13F
:10495000FFE70F980E99884207D2FFE704990DF1FF
:104960001E00405C0F990870FFE70F9801300F9010
:10497000DDE7FFE70398411E039101280DDBFFE708
:104980000F980E99884204D2FFE70F9920200870F3
:10499000FFE70F9801300F90ECE70F9810B080BD43
:1049A00080B584B06946142048600A20086048F643
:1049B0000E70C0F6000043F61161C0F6000100223F
:1049C0004FF4007301F05AFB0390039801F0A2FC2E
:1049D00004B080BD80B584B0039002910398029921
:1049E000484300F0C9FB0190019840B1FFE70198EE
:1049F0000399029A4A43002100F080FCFFE70198E6
:104A000004B080BD80B582B049F28440C0F6000099
:104A10000190FFE7019849F28841C0F60001884201
:104A200008D2FFE7019800688047FFE7019804304B
:104A30000190EFE702B080BD80B582B049F28840B6
:104A4000C0F600000190FFE7019849F29041C0F6DE
:104A50000001884208D2FFE7019800688047FFE71D
:104A6000019804300190EFE702B080BD80B584B0BA
:104A7000FFE701F043FB0390039808B9FFE722E04A
:104A80000398D0F880000190039800F05DFD02903B
:104A90000298012804D1FFE7039800F0D9FCFFE752
:104AA000019820B1FFE7019903988847FFE7029832
:104AB00040B9FFE70398006B00F046F8039800F058
:104AC000B1FCFFE7D5E704B080BD000080B582B03F
:104AD000FBF728FB019044F26441C2F20001088810
:104AE000013008800198FBF721FB02B080BD000077
:104AF00080B582B0FBF716FB019044F26440C2F22D
:104B00000000018801390180B0F90000002814DCA0
:104B1000FFE744F26441C2F20001002008800198DE
:104B2000FBF704FB40F25070C2F20000006818B1BD
:104B3000FFE700F013FEFFE703E00198FBF7F6FA4A
:104B4000FFE702B080BD000080B582B001900198FF
:104B500008B9FFE709E0FDF75BF90090019801F063
:104B6000EBF80098FDF75CF9FFE702B080BD0000AC
:104B700040F25870C2F200007047000040F25870D6
:104B8000C2F2000000F570507047000080B582B09E
:104B9000FCF7D6FD40F20400C2F20000006844F6C3
:104BA000D351C1F26201A0FB01108009FDF780F82A
:104BB000FFF728FFFFF7DCFF0190FFF7DFFF01465B
:104BC000019801F0E3F902F0F5F902B080BD0000B0
:104BD00080B582B000208DF80700FFE744F2C06086
:104BE000C2F200000DF1070100F002FD012809D01A
:104BF000FFE744F27C60C2F200004FF0FF3100F0AA
:104C00003DFFEBE79DF8070002B080BD80B584B0A2
:104C100003900020009002900190FFF757FF039847
:104C200001F072F90146009801910290FFE70298A5
:104C30000199884233D2FFE703980299405C0A2821
:104C400013D1FFE743F60000C4F201000D21FDF788
:104C50000DF8FFE743F60000C4F201008021FCF7E5
:104C600093FE08B9FFE7F5E7FFE70398411C0391BE
:104C7000017843F60000C4F20100FCF7F7FFFFE7FC
:104C800043F60000C4F201008021FCF77DFE08B964
:104C9000FFE7F5E7FFE7029801300290C7E7FFF76B
:104CA00027FF04B080BD000080B584B00390039856
:104CB0000430029040F25470C2F20000006870B1FB
:104CC000FFE740F25470C2F2000001680398884781
:104CD0000190019810B9FFE704B080BDFFE702988A
:104CE000C16B48F64860C0F6000000F0F5F8029885
:104CF000016A48F68550C0F6000000F0EDF8029811
:104D0000416A48F69F50C0F6000000F0E5F80298AE
:104D1000816A48F6B950C0F6000000F0DDF802984C
:104D2000C16A48F6D350C0F6000000F0D5F80298EA
:104D3000016848F6E050C0F6000000F0CDF8029897
:104D4000416848F6ED50C0F6000000F0C5F8029842
:104D5000816848F6FA50C0F6000000F0BDF80298ED
:104D6000C16848F60760C0F6000000F0B5F8029888
:104D7000016948F61460C0F6000000F0ADF8029832
:104D8000416948F62160C0F6000000F0A5F80298DD
:104D9000816948F69250C0F6000000F09DF8029834
:104DA000C16948F6AC50C0F6000000F095F80298D2
:104DB000016B48F6C650C0F6000000F08DF802986E
:104DC000416B48F63B60C0F6000000F085F80298A1
:104DD000816B48F62E60C0F6000000F07DF8039865
:104DE0000078400700280AD5FFE701F061FA014684
:104DF00048F6EC40C0F6000000F06EF806E048F619
:104E0000D240C0F6000000F067F8FFE7FEF73AFC7A
:104E1000FFE7FEE787B0069005910492039304989C
:104E200004300190019820F007000190019840386B
:104E300001900198029000200090FFE700980F2851
:104E40000DD8FFE70299009A4BF6EF60CDF6AD6002
:104E500041F82200FFE7009801300090EEE7059846
:104E600002990862029900204862029988620299B8
:104E7000C8620299086303980299486306980299E8
:104E8000886302994FF08070C863019807B070473B
:104E900080B582B0FBF746F9019044F25C31C2F272
:104EA00000010878013008700198FBF73FF902B063
:104EB00080BD000080B582B0FBF734F9019044F268
:104EC0005C31C2F200010878013808700198FBF7E4
:104ED0002DF902B080BD000083B080B583B0079388
:104EE00006920591029005A80190029A019B44F256
:104EF0006430C2F20000FF2101F074FC00900098C1
:104F0000B0F5807F03D3FFE7FF200090FFE744F276
:104F10006430C2F20000FFF779FE009803B0BDE8EC
:104F2000804003B07047000081B00090009840605E
:104F30000099086001B0704781B00090009840600F
:104F40000099086001B0704781B0009000984060FF
:104F50000099086001B0704781B0009000984060EF
:104F60000099086001B0704782B0019000910098EC
:104F700001990968486001980068009908600098E4
:104F80000199086001980099486002B070470000DC
:104F900082B00190009100980199096848600198D9
:104FA00000680099086000980199086001980099CC
:104FB000486002B07047000082B0019000910098F4
:104FC0000199096848600198006800990860009894
:104FD0000199086001980099486002B0704700008C
:104FE00082B0019000910098019909684860019889
:104FF000006800990860009801990860019800997C
:10500000486002B07047000082B0019000910098A3
:1050100001994968086001984068009948600098C3
:105020000199486001980099086002B0704700003B
:1050300082B0019000910098019949680860019838
:10504000406800994860009801994860019800996B
:10505000086002B07047000081B0009000990868B5
:10506000401AB0FA80F0400901B0704781B000905A
:1050700000990868401AB0FA80F0400901B0704702
:1050800081B0009000990868401AB0FA80F0400999
:1050900001B0704781B0009000990868401AB0FADA
:1050A00080F0400901B0704783B002900020019069
:1050B00002980090FFE7009800680299884207D0A4
:1050C000FFE7009800680090019801300190F2E736
:1050D000019803B07047000081B00090009801680B
:1050E0004068486000990868496808600098406016
:1050F0000099086001B0704781B000900098016885
:1051000040684860009908684968086000984060F5
:105110000099086001B0704781B000900098016864
:1051200040684860009908684968086000984060D5
:105130000099086001B0704781B000900098016844
:1051400040684860009908684968086000984060B5
:105150000099086001B0704781B000900098016824
:105160004068486000990868496808600098406095
:105170000099086001B0704780B584B00390FCF7D7
:1051800047FE029044F2A460C2F200000068039956
:1051900000F0EEFC01900298FCF742FE019804B08A
:1051A00080BD000088B00790069105920798049092
:1051B0000698039005980090009810284AD3FFE7BE
:1051C0000398049908438007002843D1FFE7049817
:1051D000029003980190FFE70098102824D3FFE77E
:1051E0000198011D0191006802990A1D0292086050
:1051F0000198011D0191006802990A1D0292086040
:105200000198011D0191006802990A1D029208602F
:105210000198011D0191006802990A1D029208601F
:10522000009810380090D7E7FFE7009804280CD3C7
:10523000FFE70198011D0191006802990A1D029281
:105240000860009804380090EFE7029804900198F5
:105250000390FFE7FFE70098411E009148B1FFE788
:105260000398411C0391007804994A1C0492087029
:10527000F1E7079808B0704785B004900391029257
:10528000049801900398009000980199884221D2D7
:10529000FFE701980099029A114488421AD2FFE769
:1052A00002990198084401900299009808440090DE
:1052B000FFE70298411E029158B1FFE70098411E96
:1052C000009110F8010C01994A1E019201F8010C9D
:1052D000EFE70FE0FFE70298411E029148B1FFE7B8
:1052E0000098411C0091007801994A1C01920870B5
:1052F000F1E7FFE7049805B07047000088B0079019
:1053000006910592079803909DF818000090059863
:1053100004283DD3FFE79DF81C008007C0BBFFE7D2
:1053200007980190009840EA00200290029840EA15
:1053300000400290FFE70598102818D3FFE7029875
:1053400001990A1D01920860029801990A1D0192B3
:105350000860029801990A1D01920860029801995B
:105360000A1D01920860059810380590E3E7FFE7F1
:105370000598042809D3FFE7029801990A1D0192B4
:105380000860059804380590F2E701980390FFE75C
:10539000FFE70598411E059130B1FFE7009803999A
:1053A0004A1C03920870F4E7079808B070470000A1
:1053B00080B588B08DF81B0005919DF81B0000F0AA
:1053C00059F802900298C068FFF7D6FE049004983E
:1053D00018B9FFE70020079021E004980299CA68F5
:1053E00000210191FFF78AFF01989DF81B10049A94
:1053F00011740499487404980599102200F098FDDE
:10540000FAF790FE03900298043004991431FFF7E4
:10541000BFFD0398FAF78AFE04980790FFE7079804
:1054200008B080BD80B582B0019001990020087459
:10543000FAF778FE009001981430FFF75DFE0098AF
:10544000FAF774FE0198FFF77FFB02B080BD000001
:1054500080B582B00190019900200874FAF762FECD
:10546000009001981430FFF747FE0098FAF75EFEAF
:1054700002B080BD83B08DF8070000200090FFE7E8
:10548000009804281ADCFFE70098010140F20800A8
:10549000C2F20000405C9DF80710884209D1FFE786
:1054A000009940F20800C2F2000000EB01100290E7
:1054B00007E0FFE7009801300090E1E7002002904C
:1054C000FFE7029803B0704780B588B007908DF869
:1054D0001B100592002003909DF81B00FFF7CAFFE8
:1054E0000290FFF7F3FA029840680390FFE70398F1
:1054F0000299043188420CD0FFE7039814380190D8
:10550000019808B1FFE7FFE7FFE703980068039001
:10551000EDE7FFF7EDFA9DF81B0040F080000799DA
:10552000087407980599102200F002FDFAF7FAFDB9
:1055300004900298043007991431FFF729FD04986C
:10554000FAF7F4FD08B080BD82B000900098007CAE
:105550000006002803D5FFE70120019002E00020AB
:105560000190FFE7019802B07047000080B5FFF797
:105570008FFC00F051FFFFF79DFC80BD80B584B02B
:105580000290029800F0C6F80146019140B1FFE791
:105590000198012807D0FFE70198022808D008E009
:1055A0000020039020E00298B0F9080003901BE06F
:1055B000FFE70299C88840088988B0EB510F08DDE1
:1055C000FFE70299C88840088988A0EB5100039042
:1055D0000AE00299B1F908008A88C9884908A1EB54
:1055E000520108440390FFE7039804B080BD000017
:1055F00080B584B0029001910298FFF7BFFF18B9FF
:10560000FFE70020039023E0029908688988490891
:10561000405C0199087002988188B0F9080001384F
:10562000B0EB510F0CD1FFE702998888C24362F3B7
:10563000000088800299888800F00100888004E0DA
:105640000299888802308880FFE701200390FFE7F5
:10565000039804B080BD000083B002900191ADF8C2
:1056600002200299888800F00100888002998888C9
:1056700020F0010088800299C88800F00100C880ED
:105680000299C88820F00100C8800198029908603A
:10569000BDF8020020F003000299088103B07047B2
:1056A00080B584B002908DF807100298B0F9081008
:1056B0000091FFF763FF01460098401A18B9FFE711
:1056C0000020039023E09DF80700029A1168D28819
:1056D000520888540298C188B0F908000138B0EB2C
:1056E000510F0CD1FFE70299C888C24362F3000052
:1056F000C8800299C88800F00100C88004E00299BF
:10570000C8880230C880FFE701200390FFE70398B4
:1057100004B080BD82B00090009988884008C98894
:10572000B0EB510F12D1FFE70099888800F001001B
:10573000C98801F00101884204D1FFE700208DF8FB
:10574000070007E001208DF8070003E002208DF834
:105750000700FFE79DF8070002B0704780B586B0EC
:10576000FAF7E0FC059044F26440C2F20000B0F9A0
:105770000000002840F0B180FFE744F26850C2F218
:1057800000000068002800F0A780FFE700200190DB
:1057900002A8FCF75FFD049040F25070C2F20000D6
:1057A000006890F83C0000F0070003283FD1FFE7B5
:1057B00040F25070C2F20000006890F83D0002997B
:1057C000884207D2FFE740F25070C2F20000006842
:1057D000049020E040F25070C2F20000006890F89F
:1057E0003D000299884212D1FFE740F25070C2F2A8
:1057F0000000006890F83C000007002807D4FFE78D
:1058000040F25070C2F200000068049002E00120F3
:105810000190FFE7FFE740F25070C2F2000001681C
:1058200091F83C0000F0F70081F83C00FFE7049895
:1058300040F25071C2F200010968884239D0FFE796
:10584000029840F24C71C2F20001087040F25071AF
:10585000C2F200010868039004980860019820B122
:10586000FFE7039800F040F8FFE7049800F08CF899
:10587000049991F83C0000F0F800033081F83C00F6
:1058800044F25C30C2F20000007850B9FFE70398A0
:10589000243004992431FAF74CFC0598FAF746FCB9
:1058A0001FE00398243004992431FAF742FCFFE703
:1058B00011E040F25070C2F200000090006800F069
:1058C00063F80098016891F83C0000F0F80003309C
:1058D00081F83C00FFE7FFE7FFE70598FAF726FCB1
:1058E000FFE706B080BD000080B582B00190FAF7F6
:1058F00019FC0090019840F25071C2F20001096851
:10590000884209D1FFE7019991F83C0000F0F800C6
:10591000033081F83C0032E0019991F83C0000F03E
:10592000F800013081F83C00019890F83C00000735
:1059300000280DD5FFE7019991F83D2044F2684019
:10594000C2F2000000EBC2001C31FFF771FB0CE05B
:10595000019991F83D2044F26840C2F2000000EB4A
:10596000C2001C31FFF728FBFFE70198026C44F2EC
:105970006851C2F20001086810430860FFE7009810
:10598000FAF7D4FB02B080BD80B582B00190FAF77F
:10599000C9FB009001981C30FFF7BEFB019890F8FE
:1059A0003D1044F26840C2F2000000EBC100FFF776
:1059B0005DFB50B1FFE70198026C44F26851C2F2FE
:1059C0000001086890430860FFE70098FAF7AEFB13
:1059D00002B080BD80B584B00390029101928DF831
:1059E00003300398029A0221FFF76EFD0398FCF73B
:1059F000CDFB0198039988849DF8030003994874AE
:105A0000002004B080BD000080B584B0029000206A
:105A10000090FAF787FB019002981C30FFF71CFBFF
:105A200038B9FFE702981C30FCF758FB01200090C2
:105A300013E00298808C4FF6FE71884205DCFFE788
:105A40000299888C0130888406E00198FAF76EFB91
:105A50006FF0020003900DE0FFE70198FAF766FB94
:105A60000098012803D1FFE7FFF778FEFFE7002049
:105A70000390FFE7039804B080BD000080B586B0B6
:105A800004900391FAF74EFB02900498808C012851
:105A900008DBFFE70499888C013888840298FAF7BC
:105AA00045FB34E0039838B9FFE70298FAF73EFB6C
:105AB0006FF0010005902DE000F0FAFB01900199D4
:105AC00000208863049A02F11C000199527CFCF7C3
:105AD00013FB039801280BDBFFE701984C300021F2
