:020000040800F2
:10000000200D0020010100086D0D0008C901000845
:10001000690D0008610B00088D1000080000000049
:10002000000000000000000000000000A90D000812
:10003000650B00080000000053010008D90E0008FD
:100040001B0100081B0100081B0100081B01000820
:100050001B0100081B0100081B0100081B01000810
:100060001B0100081B0100081B0100081B01000800
:100070001B0100081B0100081B0100081B010008F0
:100080001B0100081B0100081B0100081B010008E0
:100090001B0100081B0100081B0100081B010008D0
:1000A0001B0100081B0100081B0100081B010008C0
:1000B0001B0100081B0100081B0100081B010008B0
:1000C0001B0100081B0100081B0100081B010008A0
:1000D0001B01000875100008811000081B010008B2
:1000E0001B0100081B0100081B010008DFF80CD0F1
:1000F00000F0B6FC00480047550B0008200D00201A
:100100000648804706480047FEE7FEE7FEE7FEE7B1
:10011000FEE7FEE7FEE7FEE7FEE7FEE70D1000085C
:10012000ED000008EFF3108072B6704780F310887E
:100130007047324A1368012B04D04FF0010313605B
:100140002F4A10602F4A11602F484FF080510160F4
:100150007047EFF3108272B62848016891B14FF0F2
:10016000000101602648016829B1EFF3098121E906
:10017000F00F00680160234909680968B1E8F00FD1
:1001800081F3098882F310884EF0040E70471D49F0
:1001900008601B494FF00000086018494FF001004B
:1001A00008601A481A49D0F8002041EA02010160AB
:1001B00015484FF08051016016480068006880F3D0
:1001C000088861B662B670471EF0040F0CBFEFF3EB
:1001D0000880EFF3098020E9F00F40F804ED1EF0ED
:1001E000040F0CBF80F3088880F3098800B502F083
:1001F00031FA5DF804EB4EF0040E70470C09002054
:10020000F0060020F806002004ED00E020ED00E0FC
:100210000000FFFF08ED00E010B5431A934209D239
:100220008318881803E010F8011D03F8011D521E01
:10023000F9D210BD40EA01039B0703D009E008C9C9
:10024000121F08C0042AFAD203E011F8013B00F89B
:10025000013B521EF9D210BDF0B480EA0102D40F66
:100260004200B2EB410F02D20246084611464A0054
:1002700042D0C30DDDB2C1F3C752AD1A202D35DA1D
:10028000C1F3160141F4000204B15242C5F1200647
:1002900002FA06F12A411044B3EBD05F23D0C4B177
:1002A000012DA0EBC35009DCF0BC4FF0004202EA84
:1002B000C352DBB200F5000000F0E9BA400000F1E3
:1002C000807000EBC350A0F1807040EAD17049000B
:1002D00009E0490841EAC071A0EBC35000F50000F5
:1002E000400800EBC350F0BC00F0C8BA61420122E4
:1002F00002EB4101001BF6E7F0BC704781F00041C2
:10030000AAE780F00040A7E780EA010210B502F0FA
:100310000043400022D04A001FD0010E01EB1261C1
:10032000C0F35600C2F3560240F4000042F400024B
:10033000A0FB022000047F39140400D0401C50EAC6
:10034000124001D44000491EC2B20C0604EBD0108A
:10035000401C4008802A02D003E0002010BD20F09D
:100360000100002900DA0020184310BD30B480EAF3
:10037000010202F0004530F0004221F0004013D0AD
:1003800090B1C30DD40DC2F31601C0F31600E41AE8
:1003900041F4000140F400027D34914201D3641C19
:1003A00000E04900002C02DA30BC002070474FF416
:1003B00000000023914201D3891A034340084FEA09
:1003C0004101F7D151B1914202D14FF0004105E016
:1003D00002D24FF0010101E06FF0010103EBC450C4
:1003E000284430BC00F04ABA2DE9FE4F804681EA2D
:1003F0000300C00F0C46009021F0004123F000459F
:10040000B8EB0200A94105D24046214690461C4661
:100410000B46024623F00040104347D0270DC7F398
:100420000A00C3F30A510290401A019040286BDA87
:10043000C3F3130040F4801B0098924620B10023C0
:10044000D2EB030A63EB0B0B01985946C0F1400253
:10045000504600F0F2F906460D4650465946019ABC
:1004600000F0FAF910EB08006141002487EA11520C
:1004700084EAE7731A4340D0009A62B3019A012AD2
:100480004FEA075215DC001B61EB02014FF00042FE
:1004900002EA0752CDE90042001C41F580113246C4
:1004A0002B4600F060FA03B0BDE8F08F40462146CD
:1004B000F9E7001B61EB0201001C41F580130018F5
:1004C0005B412018A2F5001747EB030140EAD57005
:1004D000B6196D4111E06D084FEA360645EAC07560
:1004E0004FEA0752001B61EB0201001C41F580112D
:1004F00049084FEA30000019514132462B4603B0FB
:10050000BDE8F04F00F020BA00980122400000231F
:10051000D0EB020263EBE073009821464FEAE074EF
:10052000B8EB000061EB0401E9E783F000435BE70F
:1005300081F0004158E72DE9FE4F81EA030404F001
:10054000004421F0004100944FF0000B23F00043E1
:1005500050EA01045ED052EA03045BD0C3F30A54AC
:10056000C1F30A552C44A4F2F3340194A0FB0254C5
:10057000C1F3130141F48011C3F3130343F4801357
:1005800001FB024400FB034E840A970A44EA8154AB
:1005900047EA8357A4FB076802958D0A05FB078588
:1005A0004FEA932C04FB0C542705029D4FEA065892
:1005B00047EA1637B5EB08056EEB070C870E920E6F
:1005C00047EA811742EA8312A7FB0201B6EB0B014F
:1005D00064EB00042B0D43EA0C335E1844EB1C5013
:1005E000DA465146E7FB0201C5F313044FEA0B3329
:1005F00043EA14534FEA0432019C43EA0603A4F190
:100600000C040294009CCDE900B400F0ACF903B0F6
:10061000BDE8F08F00200146F9E72DE9F04D81EAB1
:10062000030404F0004B21F0004514464FF0000A8B
:1006300023F0004150EA050220D054EA01021DD007
:10064000C5F30A570246C5F31303C1F31300C1F300
:100650000A5640F4801543F48013A7EB0608101BDC
:10066000D64608F2FD3873EB050002D308F1010805
:1006700001E092185B41B8F1000F03DA0020014657
:10068000BDE8F08D00204FF48011064684460EE050
:10069000171B73EB050705D3121B63EB050306431A
:1006A0004CEA010C49084FEA300092185B4150EACD
:1006B0000107EDD152EA030012D082EA040083EA76
:1006C0000501084305D0101BAB4106D201220023CF
:1006D00006E000224FF0004302E06FF001025310E9
:1006E0001AEB06004CEB085110EB0A0041EB0B0132
:1006F000BDE8F04D00F028B9002801DBC0F1004052
:10070000002901DBC1F10041814201D8012070477D
:1007100000207047002801DBC0F10040002901DB08
:10072000C1F10041814201D2012070470020704791
:10073000002801DBC0F10040002901DBC1F10041CC
:10074000814201D30120704700207047002801DB5F
:10075000C0F10040002901DBC1F10041814201D913
:10076000012070470020704730B5041E71F100046D
:1007700004DB4FF00044404264EB0101141E73F1AE
:10078000000405DB1C464FF00043524263EB0403B8
:10079000801A994101D3012030BD002030BDC10F26
:1007A00080EAE0700844CA079623002100F06FB881
:1007B00096230022114600F06AB80EB5C10F80EAF8
:1007C000E0700844CA07002140F233438DE80E0070
:1007D0000A460B4600F0C7F803B000BD00F0004227
:1007E00030F000400AD0C10D01F56071C0F3160071
:1007F00042EA0151C20840071143704700200146F8
:10080000704701F0004330B421F0004150EA01028A
:1008100006D00A0DA2F56072C1F31301002A02DCB2
:1008200030BC00207047440F44EAC104C100E01806
:1008300030BC00EBC25000F021B8202A04DB203A83
:1008400000FA02F1002070479140C2F1200320FA23
:1008500003F3194390407047202A06DBCB17203A58
:1008600041FA02F043EAE07306E041FA02F3D040B5
:10087000C2F1200291400843194670470029A8BFE1
:100880007047401C490008BF20F00100704710B4B9
:10089000B0FA80FC00FA0CF050EA010404BF10BC6E
:1008A000704749B1CCF1200421FA04F411FA0CF19B
:1008B00018BF012121430843A3EB0C01CB1D4FEAD4
:1008C00000614FEA102042BF002010BC704700EBCF
:1008D000C35010440029A4BF10BC7047401C4900FD
:1008E00008BF20F0010010BC7047F0B4002802DC03
:1008F000F0BC00207047C0F3C751C0F3160040F4AD
:100900000000CA0701D14000491E3F2202EB6105E9
:10091000002211464FF4000626FA01F31344D418BE
:10092000844201D8001B1A464000491C1729F3DDF8
:100930005100814202D24FF0FF3100E0002102EB72
:10094000C550F0BCFFF79ABF10B5141E73F1000438
:1009500008DA401C41F1000192185B411A4301D1B1
:1009600020F0010010BD2DE9F04D92469B4611B1DB
:10097000B1FA81F202E0B0FA80F220329046FFF73D
:100980005CFF04460F4640EA0A0041EA0B01534669
:100990005A46084313D0114653EA010019D0C8F152
:1009A0004002504600F074F805460E46504659463F
:1009B0004246FFF742FF084305D0012004E02046ED
:1009C0003946BDE8F08D0020054346EAE0762C4329
:1009D00037430A986305E40AA0EB08000022FD0AE9
:1009E00044EA47540A3002D500200146E9E70105F0
:1009F00010196941DDE9084500196941BDE8F04D6C
:100A0000A2E770B521F0004303430CD0C1F30A55AF
:100A10000024D5EB040564EB0403D617AD1AB341EB
:100A200002DB0020014670BD201841EB025170BD71
:100A300030B5041E71F1000404DB4FF00044404265
:100A400064EB0101141E73F1000405DB1C464FF03A
:100A50000043524263EB0403994208BF904230BD09
:100A60001CB509480090094801900546009C06E025
:100A7000E06840F0010394E8070098471034AC4266
:100A8000F6D3FFF737FB0000044E0008244E0008A1
:100A9000202A04DB203A21FA02F00021704721FAD3
:100AA00002F3D040C2F1200291400843194670473A
:100AB0002DE9F04D00231A461B1A8A4103DB002062
:100AC0000146BDE8F08DC1F30A52C1F3130141F4B0
:100AD00080154FF0000BD10702D100186D41521E56
:100AE0000027044640F2FF11384601EB620A3E46F9
:100AF0008046024600204FF48011FFF7C9FFC2195B
:100B00007141BB1846EB0100B4EB030C75EB000C14
:100B100004D3E41A65EB000517460E46241908F1C4
:100B200001006D4180463428E3DDF91946EB0600EB
:100B3000091BA84103D24FF0FF32134601E0002207
:100B400013461BEB070046EB0A51BDE8F04DFFF7DB
:100B5000FBBE000080B503F04DF8002080BD000012
:100B6000FFE7FEE77047000088B00790069100207D
:100B70000590049003900290019000900698C07830
:100B800000F00F0005900698C078C006002806D532
:100B9000FFE706988178059808430590FFE70698D7
:100BA000007800284BD0FFE70798006801900020EC
:100BB0000390FFE7039807283DD8FFE7039901203A
:100BC0008840029006980088029908400490049892
:100BD000029988422AD1FFE7039880000290029987
:100BE0000F20884000900099019888430190059853
:100BF000029900FA01F10198084301900698C07823
:100C0000282806D1FFE70399012088400799486109
:100C10000BE00698C078482806D1FFE70399012029
:100C2000884007990861FFE7FFE7FFE7FFE70398C0
:100C300001300390BEE7019807990860FFE7069826
:100C40000088B0F5807F50DBFFE70798406801908F
:100C500000200390FFE70398072842D8FFE7039896
:100C600000F108010120884002900698008802994E
:100C7000084004900498029988422DD1FFE7039818
:100C80008000029002990F208840009000990198FE
:100C9000884301900598029900FA01F101980843F0
:100CA00001900698C078282808D1FFE7039800F142
:100CB00008010120884007994861FFE70698C0783D
:100CC000482808D1FFE7039800F108010120884077
:100CD00007990861FFE7FFE7FFE7039801300390FA
:100CE000B9E7019807994860FFE708B0704700002E
:100CF00082B00190ADF8021000208DF8010001983B
:100D00008068BDF80210084204D0FFE701208DF88A
:100D1000010003E000208DF80100FFE79DF80100CD
:100D200002B0704782B00190ADF80210BDF8020029
:100D30000199486102B0704782B00190ADF802108D
:100D4000BDF802000199086102B0704781B00090BF
:100D500000994FF6FF700880009902208870009972
:100D60000420C87001B07047FFE7FEE7704700003D
:100D700082B001908DF803109DF8030048B1FFE7A1
:100D8000019A41F21801C4F2020108681043086098
:100D900008E0019A41F21801C4F202010868904388
:100DA0000860FFE702B070477047000080B500F0B0
:100DB00001F880BD84B000200390029041F2000150
:100DC000C4F20201086840F480300860FFE741F295
:100DD0000000C4F20200006800F4003002900398A2
:100DE00001300390FFE702990020019039B9FFE735
:100DF0000398B0F5A06018BF01200190FFE70198AB
:100E0000C0070028E3D1FFE741F20000C4F202006E
:100E100000688003002803D5FFE70120029002E06C
:100E200000200290FFE70298012851D1FFE742F22B
:100E30000001C4F20201086840F010000860086870
:100E400020F003000860086840F00200086041F2EA
:100E50000401C4F202010091086808600868086093
:100E6000086840F480600860086820F47C1008601E
:100E7000086840F4E810086041F20001C4F2020181
:100E8000086840F080700860FFE741F20000C4F29B
:100E9000020000688001002801D4FFE7F5E741F275
:100EA0000401C4F20201086820F003000860086829
:100EB00040F002000860FFE741F20400C4F20200C3
:100EC000006800F00C00082801D0FFE7F4E700E01C
:100ED000FFE704B07047000080B501F0ADFC02F000
:100EE000D7F901F0BBFC80BD84B0002003900290D4
:100EF000019041F20400C4F20200006800F00C000E
:100F000003900398009040B1FFE7009804280ED0AA
:100F1000FFE70098082814D056E040F20401C2F21E
:100F2000000141F20020C0F27A00086056E040F271
:100F30000401C2F2000141F20020C0F27A00086010
:100F40004CE041F20400C4F20200016801F47011A7
:100F50000291006800F4803001900299022000EBB9
:100F600091400290019860B9FFE7029840F60011A5
:100F7000C0F23D01484340F20401C2F200010860A2
:100F800021E041F20400C4F202000068800300285E
:100F90000CD5FFE7029840F60011C0F23D0148432E
:100FA00040F20401C2F2000108600BE0029841F235
:100FB0000021C0F27A01484340F20401C2F200016C
:100FC0000860FFE7FFE709E040F20401C2F2000118
:100FD00041F20020C0F27A000860FFE741F204000D
:100FE000C4F202000068C0B2010944F60830C0F63D
:100FF0000000405C0390039A40F20401C2F2000139
:101000000868D040086004B07047000080B541F225
:101010000002C4F20202106840F00100106041F2C8
:101020000401C4F2020108680023CFF6FF03184050
:10103000086010684FF6FF73CFF6F6631840106033
:10104000106820F480201060086820F4FE0008601A
:1010500041F20801C4F202014FF41F000860FFF7DB
:10106000A5FE4EF60851CEF200014FF00060086078
:1010700080BD000080B501F0DFFB01F0EFFB80BD1B
:1010800080B501F0D9FB01F0E9FB80BDFFE7FEE789
:1010900082B0009000980138B0F1807F03D3FFE761
:1010A000012001901AE0009801384EF21401CEF2AE
:1010B000000108604EF62351CEF20001FF200870B7
:1010C0004EF21801CEF20001002008604EF210022C
:1010D000CEF20002072111600190FFE7019802B0F3
:1010E0007047000082B00090009818B9FFE7002018
:1010F000019033E09DF8000050B1FFE79DF800102B
:1011000044F61830C0F60000405C0130019025E044
:101110009DF8010050B1FFE79DF8011044F618302A
:10112000C0F60000405C0930019017E09DF8020015
:1011300050B1FFE79DF8021044F61830C0F60000E9
:10114000405C1130019009E09DF8031044F618301E
:10115000C0F60000405C19300190FFE7019802B032
:101160007047000082B0019000910098B0F1FF3FFD
:1011700011D8FFE70098B0F5803F0CD3FFE7019846
:1011800000680099884205D2FFE70199086801309C
:101190000860FFE72AE0BDF8020088B9FFE7009881
:1011A000B0F5807F0CD3FFE7019800880099884252
:1011B00005D2FFE70199088801300880FFE714E0B5
:1011C0000098FF280FD8FFE7009860B1FFE701986B
:1011D00000780099884205D2FFE70199087801302C
:1011E0000870FFE700E0FFE7FFE7FFE702B07047A6
:1011F00080B582B00190019800F06EFE3220009020
:1012000000F0FEF9019800F049FE009800F0F8F9AE
:10121000019800F04DFE009800F0F2F9019800F0FE
:1012200051FE02B080BD000080B582B001900198EF
:1012300000F048FE3220009000F0E2F9019800F042
:101240002DFE009800F0DCF9009800F0D9F9019823
:1012500000F02EFE009800F0D3F9019800F032FE65
:1012600002B080BD80B584B0039008208DF80B00DB
:1012700000208DF80A00039800F024FEFFE79DF897
:101280000B00411E8DF80B1000B3FFE79DF80A001C
:1012900040008DF80A00039800F00AFE3220019009
:1012A00000F0AEF9039800F0F9FD019800F0A8F9FC
:1012B000039800F0E9FD38B1FFE79DF80A0040F01F
:1012C00001008DF80A0000E0FFE7D8E7039800F07E
:1012D000EFFD322000F094F99DF80A0004B080BDC3
:1012E00080B584B003908DF80B1008208DF80A00AB
:1012F000FFE79DF80A00411E8DF80A1020B3FFE7B2
:10130000039800F0D5FD322000F07AF99DF80B002B
:101310000006002804D5FFE7039800F0D3FD03E0A2
:10132000039800F0D9FDFFE79DF80B0040008DF811
:101330000B003220019000F063F9039800F0AEFD3D
:10134000019800F05DF9D4E7039800F0B1FD322078
:1013500000F056F904B080BD80B584B002900298C8
:1013600000F0B0FD029800F099FD322000F048F93D
:10137000029800F089FD20B9FFE702208DF80F00E8
:1013800010E0029800F0A8FD3220019000F038F93A
:10139000029800F08DFD019800F032F900208DF8E0
:1013A0000F00FFE79DF80F0004B080BD80B582B04C
:1013B0000190019800F090FD019800F079FD322035
:1013C000009000F01DF9019800F068FD009800F011
:1013D00017F9019800F076FD009800F011F902B0BD
:1013E00080BD000080B582B00090009800F06AFDDA
:1013F000009800F053FD322000F002F9009800F050
:1014000043FD38B1FFE7009800F052FD03208DF84E
:10141000070009E0009800F04BFD322000F0F0F8E2
:1014200000208DF80700FFE79DF8070002B080BD9F
:1014300080B588B084460D980C98DDF82CE0DDF876
:1014400028E0CDF81CC00691059204938DF80F009A
:101450000798143001F042FA059807990862049839
:10146000079948620A98079988620B980799C86299
:101470000799886ACA6A232101F0F8FA079B186A5B
:10148000596A9A6ADB6A1A44043A42F61173C0F642
:10149000000301F093F90799C8619DF80F000799BF
:1014A00081F836009DF80F00079981F835000798FC
:1014B0000021029181630D98079AD0630D98079AD5
:1014C000106407980163079880F834100798016743
:1014D00007984167079B03F144006A465160116019
:1014E00043F28512C0F60002194601F0B1FF0298DE
:1014F00008B080BD80B586B084460898CDF814C089
:101500000491039202938DF807009DF80700059956
:1015100048720599487A00F0FE00487204980599CF
:10152000C8610398059908620599002088620299AC
:10153000059A51620090FFE7009800280CDCFFE755
:101540000598009900EBC100143001F0CFF9FFE7D6
:10155000009801300090EFE706B080BD80B582B002
:10156000019000200090FFE7009800280CDCFFE7C6
:101570000198009900EBC100143001F067FAFFE711
:10158000009801300090EFE702B080BD80B582B0D6
:101590000190FEF7C7FD00900198006F20B1FFE7B2
:1015A0000198016F8847FFE70098FEF7BFFD02B082
:1015B00080BD000080B586B00590049100200390A6
:1015C0000290FFE70298049988420DD2FFE7039842
:1015D00005990A1D05920968FEF73EFE0390FFE794
:1015E000029801300290EDE7039801900498FFF70C
:1015F000DFF801460198FEF7B9FE06B080BD000095
:1016000082B0019000200090FFE700980199884285
:1016100005D2FFE7FFE7009801300090F5E702B040
:101620007047000080B586B004900498C06820B16F
:10163000FFE70498006820B9FFE701208DF8170044
:101640003BE003A80290FFF781FB0498C0680121EA
:101650000091FFF78DFB009904980068FFF788FB65
:1016600002990498808AADF80C0014208DF80F00C0
:10167000032001908DF80E0004980069FFF774FABA
:1016800001980299049A1289ADF80C2010228DF865
:101690000F208DF80E0004984068FFF765FA049952
:1016A00048680989FFF748FB04990869898AFFF7A8
:1016B00043FB00208DF81700FFE79DF8170006B0E8
:1016C00080BD000080B586B084460898CDF810C073
:1016D0008DF80F108DF80E2002938DF807000498F6
:1016E000C06820B1FFE70498006820B9FFE7012037
:1016F0008DF817008FE001208DF806000498FFF7A1
:101700002BFE8DF806009DF8060028B1FFE79DF836
:1017100006008DF817007EE004989DF80F10490030
:10172000C9B2FFF7DDFD0498FFF75CFE8DF80600F7
:101730009DF8060040B1FFE70498FFF737FE9DF8DB
:1017400006008DF8170066E004989DF80E10FFF76C
:10175000C7FD0498FFF746FE8DF806009DF80600C9
:1017600040B1FFE70498FFF721FE9DF806008DF8D1
:10177000170050E00498FFF719FE0498FFF7ECFDFE
:101780008DF806009DF8060028B1FFE79DF80600D9
:101790008DF817003FE004989DF80F1049000131C3
:1017A000C9B2FFF79DFD0498FFF71CFE8DF80600F7
:1017B0009DF8060040B1FFE70498FFF7F7FD9DF89C
:1017C00006008DF8170026E0FFE79DF80700D8B166
:1017D000FFE70498FFF746FD029908709DF807009F
:1017E000012804D1FFE70498FFF71EFD03E00498E9
:1017F000FFF7FEFCFFE70298013002909DF807001A
:1018000001388DF80700E0E70498FFF7CFFD0020CE
:101810008DF81700FFE79DF8170006B080BD0000A7
:1018200080B586B00590049100200390FFE70398EF
:101830000499013988423DD2FFE700208DF80B0062
:101840000190FFE70198049A0399C9431144884223
:1018500026D2FFE70598019A00EB820150F822009A
:101860004968FEF749FFB0B9FFE701208DF80B008A
:101870000598019950F8210000900599019A01EB13
:101880008200406841F8220000980599019A01EB16
:1018900082014860FFE7FFE7019801300190D1E73E
:1018A0009DF80B0008B9FFE704E0FFE7039801305B
:1018B0000390BCE706B080BD80B59AB018908DF853
:1018C0005F1016921593189820B9FFE700208DF845
:1018D0006700E8E0002014901390FFE713989DF84C
:1018E0005F100139884280F2DA80FFE71898139977
:1018F00000EBC1014868C968FEF70CFF002841D120
:10190000FFE7139838B9FFE7169815990860032088
:101910008DF86700C7E018980F9013990D9100EBB0
:10192000C101486851F8082C0E9251F8041CFEF7CA
:10193000E5FC0D9A0E9903460F98109350F832006B
:10194000FEF7DCFC01461098FEF710FD1490149889
:10195000119016981899139A01EBC20252F8081CBC
:1019600052F8042C1292FEF7C9FC01461198FEF7BA
:10197000CBFC1299FEF770FC1599086003208DF8D6
:10198000670090E016981899139A51F83210FEF7F4
:10199000C1FE002840D1FFE716981899139A01EB71
:1019A000C2018968FEF7D2FEB0BBFFE71898079026
:1019B0001399069100EBC100416882680892C068E3
:1019C000FEF79CFC069A079903460898099351F87C
:1019D0003210FEF793FC01460998FEF7C7FC1490FD
:1019E00014980B9016981899139A01EBC2030A9356
:1019F00051F83210FEF782FC0A9A01460B985268A1
:101A00000C92FEF781FC0C99FEF726FC15990860F4
:101A100001208DF8670046E013989DF85F100139AA
:101A2000884237D1FFE7189802901399009100EB94
:101A3000C101486851F8082C019251F8041CFEF7C6
:101A40005DFC009A019903460298039350F8320016
:101A5000FEF754FC01460398FEF788FC1490149896
:101A6000049016981899139A01EBC20252F8081CB8
:101A700052F8042C0592FEF741FC01460498FEF74B
:101A800043FC0599FEF7E8FB1599086002208DF8E4
:101A9000670008E0FFE71398013013901EE700206D
:101AA0008DF86700FFE79DF867001AB080BD000061
:101AB00080B586B0049003910292049820B9FFE7A4
:101AC00000208DF817000FE0049A039910685268FF
:101AD0000192FEF719FC0199FEF7BEFB029908601E
:101AE00001208DF81700FFE79DF8170006B080BDB4
:101AF00083B00290019101980A2815D1FFE702985E
:101B000000684CF6CD42CCF6CC42A0FB0231C908AD
:101B100001EB8101A0EB4100009002990868A0FB55
:101B20000220C008086009E00298006800F00F0079
:101B300000900299086800090860FFE7009803B068
:101B40007047000080B584B003900020029001909F
:101B5000039810304FF0FF31FFF704FB0398006942
:101B6000012812D1FFE70398416840694860039853
:101B7000416840690860039908684968C07908812C
:101B8000039841680020887271E003980069032877
:101B90000AD3FFE703984168836818685A689B680E
:101BA0008B604A600860FFE70399486889680068AD
:101BB00048600398816840690860039908688968EB
:101BC000C07908810398816808684968FEF796FB28
:101BD000019001980021FEF78FFDB0B9FFE7019851
:101BE000FEF7FCFD21F0004144F22D32CEF61C320E
:101BF00043F2E263C3F61A73FEF7B6FD28B9FFE7B6
:101C0000039881680120887221E001980021FEF785
:101C10008FFDB0B9FFE70198FEF7E0FD21F000412C
:101C200044F22D32CEF61C3243F2E263C3F61A734D
:101C3000FEF79AFD28B9FFE70398816802208872B1
:101C400004E00398816800208872FFE7FFE70398AB
:101C50000069032805D3FFE7039800F00BF8029012
:101C600004E00398806800680290FFE7FFE70298AD
:101C700004B080BD80B58AB009900020089007901C
:101C80000998816808684968FEF738FB0790099849
:101C90000068007A002875D1FFE7099841688068DC
:101CA000807A897A884242D1FFE709980C30FF2177
:101CB000FFF758FA0798FEF791FD059021F00040D4
:101CC0000690099800680068FEF788FD02460598AE
:101CD0000B460699FEF748FD30B9FFE709980C302E
:101CE000FF21FFF73FFAFFE70999087B09680979A7
:101CF00088421BDBFFE709980168806800898979C1
:101D0000884206DBFFE709990868896880790881BD
:101D100008E009990A68486889680089527910447E
:101D20000881FFE7099900200873FFE708E0099997
:101D300000200873099908688968C0790881FFE75D
:101D400009988068807AB8B1FFE70998806841688F
:101D50000491079903910089FEF721FD014603983C
:101D6000FEF7D2FA4FF06E51FEF7CEFA0146049814
:101D7000FEF772FA089004E00998806840680890BD
:101D8000FFE722E009988068807AC0B1FFE70999EF
:101D9000086889684968029107990191C079FEF73E
:101DA000FEFC01460198FEF7AFFA4FF06E51FEF7C8
:101DB000ABFA01460298FEF74FFA089004E0099842
:101DC000806840680890FFE7FFE7089809998968EC
:101DD000086008980AB080BD80B584B069460520C7
:101DE000C860012088604FF40070486040F2E01045
:101DF000C2F20000086040F26810C2F2000044F62F
:101E00003A41C0F6000141F61962C0F60002002313
:101E100001F0E0F804B080BD80B582B0019000F020
:101E2000E7F8012000F08EF8FFE700F0A1F8642049
:101E300001F0FCF8F9E7000080B540F26810C2F24A
:101E4000000001F055F980BD80B584B010200090ED
:101E50000121FEF78DFF00984FF400510291ADF87B
:101E60000C108DF80F0003208DF80E0041F20000D9
:101E7000C4F20100019003A9FEF776FE01980299D1
:101E8000FEF75AFF04B080BD80B582B00190019981
:101E90000869898AFEF72CFF02B080BD80B582B048
:101EA0000190019948680989FEF746FF02B080BD9C
:101EB00080B582B00190019948680989FEF732FF28
:101EC00002B080BD80B582B0019001990869898A0D
:101ED000FEF732FF02B080BD80B582B0019001995B
:101EE0000869898AFEF71EFF02B080BD80B584B004
:101EF00000200390FFF7A8FFFFF76EFFFFF79CFF9E
:101F0000FFE741F20000C4F2010001904FF40051DC
:101F10000091FEF711FF4FF4FA70029001F086F87D
:101F200000990198FEF7FEFE029801F07FF8E8E7BD
:101F300080B582B0019000F01DFBFFF7D7FF02B023
:101F400080BD000080B582B08DF807009DF80700C5
:101F500040F2E801C2F2000181F8790001F092F943
:101F600040F26411C2F20001086002B080BD0000BE
:101F700080B582B040F20800C2F2000000F05CF8C8
:101F800040F2E800C2F2000090F8790070B3FFE779
:101F9000002001900190FFE701981D2825DCFFE754
:101FA00001F070F940F26411C2F200010968401AB0
:101FB000B0F57A7F17D3FFE740F20800C2F20000C5
:101FC000816F603040F2E802C2F2000200F036F9A0
:101FD00001F058F940F26411C2F200010860019862
:101FE0000130019000E000E0D6E7FFE702B080BDDD
:101FF00080B501F031FE40F21042C2F200024FF013
:102000008040106005201071FF20507190710020F9
:10201000D071107240F2E031C2F200010A6040F269
:102020000442C2F200024A6040F2F832C2F20002F8
:102030008A60086180BD000080B590B00F900020DC
:102040000E900D900C900B900A90099008900F98AC
:1020500008B9FFE7EFE00EA80DA901F005FE08B1F1
:10206000FFE7E8E00E980F9988650D980F99C8650D
:102070000E9A40F21861C2F2000107910B7840F20B
:102080001C60C2F2000040F823200D9A91F800C0B5
:1020900040F28063C2F20003069343F82C200A78D2
:1020A00001320A700978FFF785FA07990246069807
:1020B0000F9B9A670978FFF77DFA014607980F9AF8
:1020C000D1670078192818DBFFE740F21C60C2F2E4
:1020D0000000011D60220592FEF79EF8059A40F26D
:1020E0008060C2F20000011DFEF796F840F2186110
:1020F000C2F2000118200870FFE70F980490016EEB
:10210000806FFEF7FBF8049948660F98406E002137
:10211000FEF700FB28B9FFE70F99002081F8800047
:1021200004E00F99012081F88000FFE70F98406ECE
:10213000FEF754FB21F00041FEF763FB0C900C9975
:1021400040F2E030C2F200004161FFF7FBFC0B906F
:102150000F98C06FFEF742FB4FF06632019241F2DA
:102160006623C4F27103FEF73FF9019A45F2662334
:10217000C4F27203FEF751FAFEF743FB02F064FC6F
:1021800009904FF07E500A900B990846FEF764F8CC
:10219000FEF724FB4AF2E352CCF29B4202924BF24E
:1021A0002003C3F6F4730393FEF737FAFEF729FB17
:1021B00002F04AFC0A99FEF7A7F80999FEF7A4F87D
:1021C000089008980021C4F2C821FEF79DF80F99E5
:1021D00088660F9800F16C03826E0A21FFF76CFB92
:1021E0000F9901F1500001F17002C96EFFF760FC18
:1021F0000F99086F48670F98406F40F22041C2F274
:10220000000108600F98806FFEF7E8FA024621F09F
:10221000004310461946FEF7E7F8029A039BFEF7C3
:10222000FCF9FEF7EEFA02F00FFC40F21C41C2F29C
:1022300000010860FFE710B080BD000080B584B0E9
:102240000390029101920298019991F8782041F847
:102250002200019991F87800013081F87800019806
:1022600090F878001E2811DBFFE7019890F87810AD
:10227000FFF7D6FA019864300421FFF79BF9039920
:1022800008600199002081F87900FFE704B080BD63
:1022900080B590B0DDF850C0DDF84CC0DDF848C026
:1022A0000F900E910D920C93139806901298039034
:1022B0001498420644F61841C0F6000144F629403D
:1022C000C0F60000002A48BF084605909DF850005F
:1022D000C006002805D5FFE7149820F001001490EF
:1022E000FFE71498C1072020002918BF30208DF87F
:1022F0002F0000208DF82E009DF850008007002848
:1023000023D5FFE70D98B0F1FF3F07DCFFE72D2055
:102310008DF82E000D9840420D9015E09DF850006C
:102320004007002804D5FFE72B208DF82E000AE097
:102330009DF850000007002804D5FFE720208DF805
:102340002E00FFE7FFE7FFE7FFE7002004900D986E
:1023500040B9FFE7049A501C04900DF11E01302093
:10236000885414E0FFE70D9880B1FFE705980290CC
:102370000C990DA8FFF7BCFB01460298405C049A3B
:10238000511C04910DF11E018854ECE7FFE70498FD
:102390001399884203DDFFE704981390FFE7139930
:1023A0000398401A03909DF8500010F0110F21D1AE
:1023B000FFE79DF82E0040B1FFE70398012804DBFA
:1023C000FFE7039801380390FFE7FFE70398411EFA
:1023D000039101280DDBFFE70F980E99884204D284
:1023E000FFE70F9920200870FFE70F9801300F904A
:1023F000ECE7FFE79DF82E0088B1FFE70F980E99F4
:10240000884205D2FFE79DF82E000F990870FFE77C
:102410000398013803900F9801300F90FFE79DF863
:102420005000C006002816D4FFE7FFE70398411EBE
:10243000039101280EDBFFE70F980E99884205D221
:10244000FFE79DF82F000F990870FFE70F98013004
:102450000F90EBE7FFE7FFE7049813994A1E1392EA
:1024600088420DDAFFE70F980E99884204D2FFE701
:102470000F9930200870FFE70F9801300F90EBE7BD
:10248000FFE70499481E049000200129019006DB13
:10249000FFE70698002818BF01200190FFE7019888
:1024A000C00780B1FFE70F980E99884207D2FFE777
:1024B00004990DF11E00405C0F990870FFE70F981A
:1024C00001300F90DDE7FFE70398411E03910128DB
:1024D0000DDBFFE70F980E99884204D2FFE70F99B2
:1024E00020200870FFE70F9801300F90ECE70F985D
:1024F00010B080BD80B586B040F2A050C2F200009E
:10250000059005986A461421D1600A2191604FF424
:102510008071516040F2A041C2F20001116044F6A6
:102520006051C0F6000141F63172C0F6000200238E
:1025300000F050FD0490059800F0DAFD06B080BD73
:1025400080B582B044F6F850C0F600000190FFE775
:10255000019844F6FC51C0F60001884208D2FFE71A
:10256000019800688047FFE7019804300190EFE789
:1025700002B080BD80B582B044F6FC50C0F60000C9
:102580000190FFE7019844F60061C0F6000188421F
:1025900008D2FFE7019800688047FFE70198043000
:1025A0000190EFE702B080BD80B582B0FDF7BAFDC3
:1025B000019040F27C71C2F200010888013008806D
:1025C0000198FDF7B3FD02B080BD000080B582B078
:1025D000FDF7A8FD019040F27C70C2F20000018876
:1025E00001390180B0F90000002814DCFFE740F257
:1025F0007C71C2F20001002008800198FDF796FD71
:1026000040F2E860C2F20000006818B1FFE700F095
:1026100015FBFFE703E00198FDF788FDFFE702B037
:1026200080BD000080B5FEF75FFC40F20400C2F2FE
:102630000000006844F6D351C1F26201A0FB011012
:102640008009FEF725FDFFF77BFF80BD81B000907C
:1026500001B0704780B584B00390039804300290B5
:1026600040F2EC60C2F20000006870B1FFE740F297
:10267000EC60C2F20000016803988847019001985D
:1026800010B9FFE704B080BDFFE70298C16B44F6C4
:102690005350C0F6000000F0F3F80298016A44F6C7
:1026A0009040C0F6000000F0EBF80298416A44F652
:1026B000AA40C0F6000000F0E3F80298816A44F6F0
:1026C000C440C0F6000000F0DBF80298C16A44F68E
:1026D000DE40C0F6000000F0D3F80298016844F62E
:1026E000EB40C0F6000000F0CBF80298416844F6D9
:1026F000F840C0F6000000F0C3F80298816844F684
:102700000550C0F6000000F0BBF80298C16844F61E
:102710001250C0F6000000F0B3F80298016944F6C8
:102720001F50C0F6000000F0ABF80298416944F673
:102730002C50C0F6000000F0A3F80298816944F61E
:102740009D40C0F6000000F09BF80298C16944F675
:10275000B740C0F6000000F093F80298016B44F611
:10276000D140C0F6000000F08BF80298416B44F6AF
:102770004650C0F6000000F083F80298816B44F6E2
:102780003950C0F6000000F07BF80398007840074D
:1027900000280AD5FFE700F07BFC014644F66640BE
:1027A000C0F6000000F06CF806E044F64C40C0F6BD
:1027B000000000F065F8FFE7FFE7FEE787B006904E
:1027C000059104920393049804300190019820F03D
:1027D0000700019001984038019001980290002074
:1027E0000090FFE700980F280DD8FFE70299009AA4
:1027F0004BF6EF60CDF6AD6041F82200FFE70098A0
:1028000001300090EEE705980299086202990020D5
:102810004862029988620299C86202990863039823
:102820000299486306980299886302994FF0807074
:10283000C863019807B0704780B582B0FDF772FC9D
:10284000019040F2F461C2F2000108780130087092
:102850000198FDF76BFC02B080BD000080B582B02E
:10286000FDF760FC019040F2F461C2F200010878CB
:10287000013808700198FDF759FC02B080BD0000D6
:1028800083B080B583B0079306920591029005A8A6
:102890000190029A019B40F2FC60C2F200007F218D
:1028A00000F0BCFE00900098802803D3FFE77F2053
:1028B0000090FFE740F2FC60C2F20000FFF7C6FEA6
:1028C00003B0BDE8804003B07047000081B00090C5
:1028D000009840600099086001B0704781B0009096
:1028E000009840600099086001B0704781B0009086
:1028F000009840600099086001B0704782B0019074
:102900000091009801990968486001980068009951
:10291000086000980199086001980099486002B029
:102920007047000082B001900091009801990968F9
:102930004860019800680099086000980199086053
:1029400001980099486002B07047000082B0019081
:102950000091009801990968486001980068009901
:10296000086000980199086001980099486002B0D9
:102970007047000082B00190009100980199496869
:102980000860019840680099486000980199486083
:1029900001980099086002B07047000082B0019071
:1029A0000091009801994968086001984068009971
:1029B000486000980199486001980099086002B049
:1029C0007047000081B0009000990868401AB0FA82
:1029D00080F0400901B0704781B00090009908680C
:1029E000401AB0FA80F0400901B0704781B0009001
:1029F0000098016840684860009908684968086064
:102A0000009840600099086001B0704781B0009064
:102A10000098016840684860009908684968086043
:102A2000009840600099086001B0704781B0009044
:102A30000098016840684860009908684968086023
:102A4000009840600099086001B0704781B0009024
:102A50000098016840684860009908684968086003
:102A6000009840600099086001B0704788B00790F6
:102A700006910592079803909DF81800009005981C
:102A800004283DD3FFE79DF81C008007C0BBFFE78B
:102A900007980190009840EA00200290029840EACE
:102AA00000400290FFE70598102818D3FFE702982E
:102AB00001990A1D01920860029801990A1D01926C
:102AC0000860029801990A1D019208600298019914
:102AD0000A1D01920860059810380590E3E7FFE7AA
:102AE0000598042809D3FFE7029801990A1D01926D
:102AF0000860059804380590F2E701980390FFE715
:102B0000FFE70598411E059130B1FFE70098039952
:102B10004A1C03920870F4E7079808B07047000059
:102B200080B582B00190019900200872FDF7FAFA91
:102B3000009001980C30FFF759FF0098FDF7F6FA66
:102B400002B080BD83B08DF8070000200090FFE741
:102B5000009803281ADCFFE70098010140F28C007E
:102B6000C2F20000405C9DF80710884209D1FFE7DF
:102B7000009940F28C00C2F2000000EB01100290BC
:102B800007E0FFE7009801300090E1E700200290A5
:102B9000FFE7029803B0704780B588B007908DF8C2
:102BA0001B100592002003909DF81B00FFF7CAFF41
:102BB0000290FFF7F9FC029840680390FFE7039842
:102BC0000299043188420CD0FFE703980C38019039
:102BD000019808B1FFE7FFE7FFE70398006803905B
:102BE000EDE7FFF7F3FC9DF81B0040F0800007992C
:102BF000087207980599082200F0ECF8FDF792FAA0
:102C000004900298043007990C31FFF777FE04987E
:102C1000FDF78CFA08B080BD82B000900098007A71
:102C20000006002803D5FFE70120019002E0002004
:102C30000190FFE7019802B07047000080B584B0B2
:102C4000FDF770FA039040F27C70C2F20000B0F918
:102C50000000002843D1FFE740F68800C2F20000E0
:102C60000068FEF73FFA01380090009940F2887042
:102C7000C2F2000050F8310014380290029840F27D
:102C8000E861C2F200010968884227D0FFE7009896
:102C900040F2E461C2F20001087040F2E861C2F261
:102CA0000001086801900298086040F2F460C2F2E6
:102CB0000000007850B9FFE701981C3002991C31E0
:102CC000FDF737FA0398FDF731FA0CE001981C3054
:102CD00002991C31FDF72DFAFFE7FFE7FFE70398A4
:102CE000FDF724FAFFE704B080BD000080B582B094
:102CF0000190FDF717FA0090019991F8340000F067
:102D0000F000013081F83400019991F8352040F24B
:102D10008870C2F2000000EBC2001431FFF72AFEF7
:102D20000198826B40F68801C2F2000108681043E6
:102D300008600098FDF7FAF902B080BD80B582B056
:102D40000190FDF7EFF9009001981430FFF75EFE57
:102D5000019890F8351040F28870C2F2000000EB44
:102D6000C100FFF72FFE50B1FFE70198826B40F6DC
:102D70008801C2F20001086890430860FFE70098EC
:102D8000FDF7D4F902B080BD80B582B044F66B5037
:102D9000C0F60000FFF774FD44F69E50C0F6000038
:102DA000FFF76EFD44F6E750C0F600006946086084
:102DB00044F6C250C0F60000032101220523FFF7AC
:102DC0005FFD44F67450C0F60000FFF759FD02B0F5
:102DD00080BD000085B0049003910292029820B358
:102DE000FFE70498019003980090FFE70098411CCA
:102DF0000091007801994A1C0192087068B9FFE7B8
:102E0000FFE702980138029030B1FFE70199481CB2
:102E1000019000200870F4E706E0FFE7029801380F
:102E200002900028E2D1FFE7FFE7049805B0704761
:102E300080B582B040F27C71C2F2000100200880AF
:102E40000190FFE701981F280EDCFFE7019940F28F
:102E50008870C2F2000000EBC100FFF737FDFFE70A
:102E6000019801300190EDE740F2E461C2F2000107
:102E70001F20087040F2E861C2F2000100200860E3
:102E800040F68801C2F20001086040F28070C2F290
:102E90000000FFF71BFD02B080BD000080B582B0CE
:102EA00040F68800C2F200000068FEF71BF9013806
:102EB0000090009940F28870C2F2000050F8310092
:102EC00014380190019840F2E861C2F200010860F4
:102ED00001981C30FDF75BF902B080BD80B582B06F
:102EE00000200190FFE7019870B9FFE7019940F6D3
:102EF0001410C2F2000000EBC100FFF7F7FCFFE77F
:102F0000019801300190EEE702B080BD70470000EB
:102F100080B582B040F2E860C2F200000068019023
:102F2000FDF700F900900198FEF730FB0198FFF7DC
:102F300005FF0199042081F834000198443000F025
:102F40006FFA0198FFF768FE012804D1FFE70198A6
:102F5000FFF7E6FD09E0019800F1140140F28070EE
:102F6000C2F20000FFF7DEFCFFE7FFF767FE009804
:102F7000FDF7DCF802B080BD80B582B00190FFE7BC
:102F800000F002F8FCE700007047000080B586B052
:102F900069462020C8601F2088608020486040F675
:102FA0008C00C2F20000086040F22440C2F200002F
:102FB000059044F66551C0F6000142F67972C0F6FC
:102FC0000002002300F006F8059800F091F806B022
:102FD00080BD000070B58AB0844611981098DDF865
:102FE0003CE0DDF838E0CDF824C008910792069364
:102FF0008DF817000998089A0121FFF7CDFD09986F
:103000000899079A069BDDF838C00F9C9DF8175069
:10301000119EEE46CEF80C60CEF80850CEF8044073
:10302000CEF800C0FEF704FA0AB070BD80B582B0D9
:103030000190019800F0F4F80090009800F02EF84C
:1030400002B080BD80B584B00290029890F8340040
:1030500000F00F00022804D0FFE74FF0FF3003908C
:1030600013E0FDF75FF8019002981430FFF7DEFCE3
:103070000298443000F0B2FA0198FDF757F8029830
:10308000FFF734FE00200390FFE7039804B080BDF3
:1030900040F2E860C2F200000068704780B584B07A
:1030A0000390FDF73FF8029040F2E860C2F20000A2
:1030B00000680190019800F03BF80198443000212D
:1030C00003AA00F06FF90198443000F0E1F902988A
:1030D000FDF72CF8FFF7B2FD0198006B023020B924
:1030E000FFE7019900200863FFE7002004B080BDDE
:1030F00080B582B00190019991F8360081F83500D1
:10310000019991F8352001209040886301990220AF
:1031100081F834000198FFF795FFFFF7B9FF18B168
:10312000FFE7FFF78BFDFFE7002002B080BD000046
:1031300080B584B00290029890F8340000F00F003F
:10314000012804D0FFE74FF0FF30039017E0FCF7B1
:10315000E9FF01900298FFF7F1FD029991F8340020
:1031600000F0F000023081F834000298443000F0A2
:1031700035FA0198FCF7DAFF00200390FFE7039887
:1031800004B080BD80B582B0019001980090009994
:103190006FF00100086300981430FFF747FC0098B7
:1031A000FFF7A4FDFFF74AFD02B080BD80B584B0F3
:1031B000FCF7B8FF029040F2E860C2F2000000683D
:1031C0000190019890F8340000F00F0001281ED102
:1031D000FFE7019948698969884218D0FFE701989B
:1031E0001430FFF723FC019991F8352040F28870E4
:1031F000C2F2000000EBC2001431FFF7CFFB0298CF
:10320000FCF794FFFFF71AFD0020039005E00298F9
:10321000FCF78CFF00200390FFE7039804B080BD0B
:1032200082B001900198B0F1FF3F04DCFFE74FF05E
:10323000FF30009022E0019844F6D351C1F26201C0
:1032400080FB0102901100EBD2704FF47A72504370
:103250000090019B83FB010C4FEAAC1000EBDC708B
:1032600000FB1230504300F2E73080FB010188116F
:1032700000EBD171009808440090FFE7009802B07D
:103280007047000040F61010C2F20000006870475E
:1032900080B582B040F61011C2F20001086801301A
:1032A0000860FFF7F5FE01900199086C0138086489
:1032B0000198006C30B9FFE70199C86B0864FFF70B
:1032C00075FFFFE700F002F802B080BD80B586B060
:1032D00001A8FFF70BFBFFF7D5FF0490FCF722FFD7
:1032E0000390FFE740F61410C2F20000FFF774FBF2
:1032F000002851D1FFE740F61410C2F20000006828
:103300001438059004980599896A401A4FF6FE71A1
:10331000C7F6FF7188423DD8FFE70598FEF71EF912
:103320000598407A8007002806D4FFE70599487A77
:1033300000F0FE004872FFE7059800F1140101A8B3
:103340000090FFF703FB0598C169006A8847FFF703
:1033500099FF014600980491FFF73EFB08B1FFE793
:10336000C0E705981430FFF771FB0598407A800795
:1033700000280ED5FFE70598407AC00748B1FFE75F
:103380000599487A00F0FE004872059800F080F830
:10339000FFE700E000E0A5E70398FCF7C7FE06B0F2
:1033A00080BD000080B586B0059004910392FCF7C3
:1033B000B9FE029004980190042829D80199DFE809
:1033C00001F008030D1319000598406A039908607D
:1033D0001FE003980068059948621AE00599487A49
:1033E00000F0FD00487214E00599487A40F00200B0
:1033F00048720EE00598407AC00720B1FFE70399B4
:103400000120086003E0039900200860FFE700E066
:10341000FFE70298FCF78AFE002006B080BD00009E
:1034200080B582B00190FCF77DFE00900198FEF718
:1034300095F80199487A00F0FE0048720098FCF770
:1034400075FE0198FFF76CFB002002B080BD000004
:1034500080B586B084460998DDF820E0CDF814C028
:103460000491039202938DF807000598049A0A21AB
:10347000FFF792FB05980399029A089B9DF807C0F5
:10348000EE46CEF800C0FEF735F806B080BD00006D
:1034900080B588B00790FCF745FE04900798FEF7CA
:1034A0005DF80799487A00F0FE004872FFF7EAFEDF
:1034B00007994A6A1044886240F61410C2F200006C
:1034C00005900598039000200690FFE706980028D5
:1034D00048D1FFE7FFE7069A03A850F822000599B4
:1034E00001EBC201496888422BD0FFE7069903A887
:1034F00050F821000068009000980699A0EBC100E8
:10350000143801900198806A0799896A401A08B9AD
:10351000FFE70EE00198806A0799896A401A4FF622
:10352000FE71C7F6FF71884201D8FFE709E0FFE7A7
:10353000FFE7069A03A951F82200006841F822002B
:10354000C9E7069848B1FFE7069A03A800EB820195
:1035500050F8220008304860FFE7FFE70698013086
:103560000690B3E740F61C10C2F20000016801317A
:10357000016000680290039807991431FFF7E6F99B
:1035800002200690FFE7069801281BD8FFE79DF868
:103590000800800768B9FFE70698C0F1010203A898
:1035A00050F82200079901EBC2011431FFF7CEF960
:1035B00000E007E0029880080290FFE706980130DB
:1035C0000690E0E70799487A40F0010048720498B5
:1035D000FCF7ACFD002008B080BD000080B584B0D1
:1035E00002900298407AC00720B9FFE74FF0FF3001
:1035F000039010E0FCF796FD01900298FDF7AEFFF6
:103600000299487A00F0FE0048720198FCF78EFD9E
:1036100000200390FFE7039804B080BDB0B594B0DC
:10362000139312901191109212980C901298119974
:1036300008440B900B981299884208D2FFE74FF08C
:10364000FF300B900B981299401A1190FFE7FFE79B
:1036500010980078002800F0AE82FFE710980078FC
:1036600025280ED0FFE70C980B99884205D2FFE77A
:10367000109800780C990870FFE70C9801300C90B6
:1036800095E200208DF82200FFE71098013010909D
:10369000109800782D2807D1FFE79DF8220040F010
:1036A00010008DF8220034E0109800782B2807D104
:1036B000FFE79DF8220040F004008DF8220027E08B
:1036C00010980078202807D1FFE79DF8220040F0ED
:1036D00008008DF822001AE010980078232807D1FE
:1036E000FFE79DF8220040F020008DF822000DE059
:1036F00010980078302807D1FFE79DF8220040F0AD
:1037000001008DF8220000E004E0FFE7FFE7FFE79B
:10371000FFE7BAE74FF0FF30079010980078303895
:10372000092805D8FFE710A800F07AFA07901DE0F5
:10373000109800782A2818D1FFE7109801301090CF
:103740001398011D1391006807900798B0F1FF3F8F
:103750000ADCFFE70798404207909DF8220040F0FE
:1037600010008DF82200FFE7FFE7FFE74FF0FF3082
:103770000690109800782E2826D1FFE71098013087
:103780001090109800783038092805D8FFE710A865
:1037900000F046FA06900EE0109800782A2809D129
:1037A000FFE71098013010901398011D13910068E5
:1037B0000690FFE7FFE70698B0F1FF3F03DCFFE765
:1037C00000200690FFE7FFE700208DF82100109809
:1037D0000078682805D0FFE7109800786C2808D199
:1037E000FFE7109800788DF82100109801301090B4
:1037F000FFE70A208DF8230010980078253801464D
:103800000591532800F266810599DFE811F03F0128
:103810006301630163016301630163016301630188
:103820006301630163016301630163016301630178
:103830006301630163016301630163016301630168
:103840006301630163016301630163016301630158
:103850006301630163016301630163016301630148
:103860006301630163016301630163016301630138
:10387000630163015001630163016301630163013B
:103880006301630163016301630154005B01630130
:103890006301630163015B01630163016301630110
:1038A00063014C011B016301630197006301620125
:1038B0006301630157019DF82200C006002815D45A
:1038C000FFE7FFE707980138079001280DDBFFE7C6
:1038D0000C980B99884204D2FFE70C9920200870BD
:1038E000FFE70C9801300C90ECE7FFE71398011DFF
:1038F000139100688DF82B000C980B99884205D223
:10390000FFE79DF82B000C990870FFE70C98013039
:103910000C90FFE707980138079001280DDBFFE7BF
:103920000C980B99884204D2FFE70C99202008706C
:10393000FFE70C9801300C90ECE738E11398011D7B
:10394000139100680990099830B9FFE744F6E050F8
:10395000C0F600000990FFE700200D90FFE70D99E9
:10396000079A00209142049008D0FFE709980D992A
:10397000405C002818BF01200490FFE70498C007AE
:1039800028B1FFE7FFE70D9801300D90E7E70698B3
:10399000012808DBFFE70D980699884203DDFFE761
:1039A00006980D90FFE79DF82200C006002816D467
:1039B000FFE7FFE70D9807994A1E079288420DDA44
:1039C000FFE70C980B99884204D2FFE70C9920205E
:1039D0000870FFE70C9801300C90EBE7FFE7002040
:1039E0000E90FFE70E980D99884215DAFFE70C98C4
:1039F0000B99884205D2FFE7099800780C99087066
:103A0000FFE70C9801300C90099801300990FFE70E
:103A10000E9801300E90E5E7FFE70D9807994A1ED2
:103A2000079288420DDAFFE70C980B99884204D27E
:103A3000FFE70C9920200870FFE70C9801300C90EC
:103A4000EBE7B4E00798013048B9FFE7082007909A
:103A50009DF8220040F001008DF82200FFE70C984D
:103A60000B99139A131D13931268079BDDF818E046
:103A70009DF82240EC46CCF80840CCF804E0CCF8A5
:103A800000301023FEF704FC0C9090E00C980B998A
:103A9000884204D2FFE70C9925200870FFE70C98B4
:103AA00001300C9083E008208DF8230035E09DF86C
:103AB000220040F040008DF82200FFE710208DF832
:103AC00023002AE09DF8220040F002008DF8220039
:103AD000FFE722E00C980B99884204D2FFE70C998B
:103AE00025200870FFE70C9801300C9010980078A2
:103AF00070B1FFE70C980B99884205D2FFE7109848
:103B000000780C990870FFE70C9801300C9003E0E6
:103B1000109801381090FFE749E09DF821006C28CB
:103B20000DD1FFE71398011D139100680F909DF8C8
:103B300022008007002801D5FFE7FFE722E09DF87B
:103B40002100682810D1FFE71398011D1391008808
:103B50000F909DF822008007002804D5FFE7BDF9EB
:103B60003C000F90FFE70CE01398011D13910068D3
:103B70000F909DF822008007002801D5FFE7FFE79E
:103B8000FFE7FFE70C980B990F9A9DF82330DDF8BB
:103B90001CC0069C9DF82250EE46CEF80850CEF888
:103BA0000440CEF800C0FEF773FB0C90FFE71098BE
:103BB000013010904CE5119878B1FFE70C980B9903
:103BC000884204D2FFE70C990020087004E00B99AA
:103BD000002001F8010CFFE7FFE70C981299401A4A
:103BE00014B0B0BD0020704700207047002070471F
:103BF0000020704780B5FCF795FAFEF713FDFFF73C
:103C0000C3F8FFF76BF9FFF713F9FEF773FCFFF743
:103C10007DF9FFF7BBF9FFF741F9002080BD0000F7
:103C200082B0019000200090FFE7019800680078C2
:103C3000303809280DD8FFE7009800EB8001019B80
:103C40001868421C1A60007800EB41003038009080
:103C5000EBE7009802B0704780B540F2CC00C2F2AA
:103C60000000FDF7DFFC80BD80B59AB01890179179
:103C700000200C908DF8580015908DF853008DF8A9
:103C8000520013901290119010900F9001228DF815
:103C90003B206846026040F2CC00C2F2000058218E
:103CA00015ABFDF70FFD8DF83B009DF85400800625
:103CB000002804D4FFE7FF208DF8670005E169467E
:103CC0000520086040F2CC00C2F200005821042216
:103CD00015ABFDF7F7FC8DF83B009DF854009DF8FF
:103CE00055209DF85610000440EA02200844129026
:103CF000BDF8570040BA11901298B0F5000F16DDCC
:103D0000FFE7129800F17F40FCF757FD002209926F
:103D10000023C3F6A063FCF70EFC099A44F20003EB
:103D2000C4F28F03FCF707FC0A900B9113E0129882
:103D3000FCF743FD002208920023C3F6A063FCF7C2
:103D4000FAFB089A44F20003C4F28F03FCF7F3FB7A
:103D50000A900B91FFE70A980B99FCF752FD10901F
:103D60001098FCF73BFD002244F20003CCF27F03E5
:103D7000FCF73AFBFCF745FD1090694601200490E2
:103D8000086040F2CC00C2F2000007905821059173
:103D9000202215AB0693FDF795FC049A0599069B26
:103DA000844607988DF83BC09DF854C08DF853C0E9
:103DB000EC46CCF800202122FDF784FC8DF83B0076
:103DC0009DF854008DF852009DF853000C2804D142
:103DD000FFE74FF48050139037E09DF853008C2894
:103DE00006D1FFE74FF20000CFF6FF7013902BE0F3
:103DF0009DF853000D2804D1FFE74FF400501390B5
:103E000021E09DF853008D2806D1FFE74EF2000017
:103E1000CFF6FF70139015E09DF853000E2804D1E3
:103E2000FFE74FF4804013900BE09DF853008E287D
:103E300006D1FFE74CF20000CFF6FF701390FFE7CA
:103E4000FFE7FFE7FFE7FFE7FFE79DF8520049F6CE
:103E50009A11C1F69911A0FB0110FCF7AEFC0246C5
:103E60000B4600204FF0804100F0D2F8FCF7C9FC6F
:103E70000D901198B0F5004F05DDFFE71198A0F502
:103E80008030039002E011980390FFE703981399A4
:103E9000401AFCF784FC0D99FCF768FAFCF79EFCCD
:103EA000002202920023C4F23903FCF79DFAFCF7CA
:103EB000A8FC014602980F911099189A11600F9969
:103EC000179A11608DF86700FFE79DF867001AB038
:103ED00080BD490050EAC12018BF04204A0D18BF18
:103EE00040F0010040F2FF72B2EB515F08BF40F0BA
:103EF0000200012808BF052070472DE9F0414F1E40
:103F000000EBC7010446D1E9000115461E4637F013
:103F100006020DD02A463346FCF70DFB7F1E04EB4C
:103F2000C703D3E90023FCF75FFA37F00602F1D1AB
:103F3000022F25D0042F13D0062F18BFBDE8F08123
:103F40002A463346FCF7F7FAD4E90A23FCF74CFA81
:103F50002A463346FCF7EFFAD4E90823FCF744FA83
:103F60002A463346FCF7E7FAD4E90623FCF73CFA85
:103F70002A463346FCF7DFFAD4E90423FCF734FA87
:103F80002A463346FCF7D7FAD4E90223FCF72CFA89
:103F90002A463346FCF7CFFAD4E90023BDE8F041C6
:103FA000FCF722BA0022134610460149FCF735BB44
:103FB0000000F03FFCF718BA0022134610461146E5
:103FC000FCF72BBB40F2013200204FF0E041FCF740
:103FD00018BD0000024A00201107FCF712BD0000C6
:103FE00001FDFFFF02E008C8121F08C1002AFAD134
:103FF00070477047002001E001C1121F002AFBD169
:104000007047000001490860704700000000002070
:104010002DE9F04D1D460C4694B0174621F00041A5
:1040200023F00043002814BF4FF0010C4FF0000CA8
:104030000CEB440CFB4A0CEB02064FEA620C6645A3
:104040002BD33E0018BF012606EB45061644F64A60
:10405000964222D3F54A53EA070C02D0944205D186
:1040600048B914B000201146BDE8F08D002808BF03
:104070004FF0000C01D04FF0010C0CEB440212F594
:10408000001F0AD8002F14BF4FF0010C4FF0000C96
:104090000CEB450212F5001F07D914B03A462B4627
:1040A0002146BDE8F04DFFF785BF0022DFF880A371
:1040B000002CB8BF534526DADFF878C36345A8BFA4
:1040C000022220DADFF864C39C451CDCDFF868C3F9
:1040D0000CEB235CBCF1140F08DDCCF1340627FA9D
:1040E00006FC0CFA06F6BE420DD108E05FB9CCF131
:1040F000140623FA06FC0CFA06F69E4203D10CF0D5
:104100000102C2F1020251EA000C19D1002D17DAA6
:10411000002C18BF022A01D0012A07D00220FFF785
:1041200071FF14B0BDE8F04DFFF73CBF0220FFF770
:1041300069FFFFF737FF14B081F00041BDE8F08D53
:10414000B7F1000C6CD1534525D104F1804212F532
:10415000801201BF00280020B44914B008BFBDE898
:10416000F08DB248884207DC002DA1BF6046294689
:1041700014B0BDE8F08D07E0002DBFBF604685F0AC
:10418000004114B0BDE8F08DAC497944D1E900019B
:1041900014B0BDE8F08DDFF894C2634525D1002D41
:1041A0001FDA19B1514512D1D8B909E0002840F001
:1041B000F6829F4A214614B062F31E01BDE8F08DDD
:1041C0000020214614B060F31E01BDE8F08D08DA2E
:1041D00014B02346BDE8F04D024600206146FCF7CE
:1041E0001CBA14B02146BDE8F08D514518DAB5F17E
:1041F000804F0DD0A5F1005CBCF1FF5C10D1B4F193
:10420000000C0DDB14B06146BDE8F04D00F0F6BBCC
:10421000234614B00246BDE8F04D1946FCF78BB9B1
:10422000060024F0004C3BD1D9B1514533D1002CCC
:1042300006DD002DA1BF0020514614B0BDE8F08D71
:10424000002C01DD002D1BDB002C13DA002D11DB0F
:10425000012A4FF0000014BF7549794914B0BDE838
:10426000F08D022A18BF002C0AD0012A08D1002C98
:1042700006DA0AE0002CB8BF002D11DA012A04D0BA
:10428000002014B00146BDE8F08D14B000204FF0BE
:104290000041BDE8F08DA1F14050B0F17F601AD02F
:1042A000012000EBE47050EA020421D05F4C521E62
:1042B0004FF0000B104304BF4FF0000B614C6248FD
:1042C00083427DDD614A6248934229DD884217DBE3
:1042D000002D2FDB41E0002C00DA4AB1022A0CBF8E
:1042E00001204FF0FF3014B0BDE8F04DFCF765BA87
:1042F0000120FFF787FE14B0BDE8F04DFFF75CBE6C
:104300004A4A8A420CDC002D14DC0220FFF77AFEB8
:10431000FFF760FE61F31E0414B02146BDE8F08D86
:10432000814202DA002D18DA04E0404B994220DD88
:10433000002D12DD0220FFF765FEFFF743FE054664
:104340000E460022534658462146FCF7F4F814B0B6
:1043500066F31E012846BDE8F08D0220FFF752FEED
:10436000FFF738FE0A46214614B062F31E01BDE88D
:10437000F08D002230466146FCF7D7F806468846A5
:104380006FF00102FCF73DFB4FF05532314BFCF76B
:10439000CFF832464346FCF7CEF800222E4BFCF70E
:1043A000C7F88A4632464346029010461946FCF743
:1043B000C2F85346029AFCF7BEF88246324600E045
:1043C00054E0059143464FF0C0402449FCF7B3F850
:1043D000CDE90C01224A214B50460599FCF7ABF878
:1043E000824601911F4A204B30464146FCF7A3F814
:1043F0005246019BFCF799F882460B46024609910A
:10440000DDE90C01FBF7F0FFDDE90C23002688460F
:104410003046FCF78AF85246099BFCF789F80246B9
:1044200000F07EB9FFFF1F00FFFF0F000000F03F0C
:104430000000F07F0000404301FCFFFF7209000014
:104440000000F0FF0000F0BF0000E0410000F0437A
:10445000FFFFEF3F5555D53F0000E03F4715F73FC1
:10446000FE822B6544DF5DF80BAE543E0020B1F5B3
:10447000801F07DA352230466146FCF7C2FA06464D
:104480006FF0340000EB2150A0F2FF300190C1F337
:10449000130040F07F6141F040510291FE49884293
:1044A000D8BF002004DDFD498142C8BF012001DDE5
:1044B0000F9008E000200F900198401C0190029896
:1044C000A0F5801002900299F548784405910F9963
:1044D00000EBC1001290D0E9002330460599FCF7AB
:1044E00024F8CDE90C011298D0E900233046059953
:1044F000FBF77AFF02460B460020EA49FCF78DF8ED
:104500000B46CDE908010246DDE90C01FCF713F882
:104510000A90E5488A464FF00008784402990068FE
:1045200010904FF0005040EA61010F9801EB80407D
:1045300000F5002112981191D0E900231098FBF7A3
:10454000F4FF3246059BFBF7F3FF42465346FBF769
:10455000F2FFDDE910230646039140465146FBF782
:10456000EAFFDDE90C23FBF7E3FF3246039BFBF791
:10457000DCFFDDE90823FBF7DEFF03910A9A1290C6
:10458000534610461946FBF7D6FF06460246C74873
:104590000B46029106217844FFF7AFFC029B32469E
:1045A0000591089010461946FBF7C5FF059B089A30
:1045B000FBF7C1FF064609915346404619460A9A41
:1045C000FBF712FF039B129AFBF7B5FF3246099BDC
:1045D000FBF70AFFCDE9080142465346104619464B
:1045E000FBF7A9FF02460B46029104900020B04958
:1045F000FBF7FAFEDDE90823FBF7F6FE0E4642461E
:10460000AB4B4046FBF791FF029B049AFBF78DFFF3
:10461000DDE90823FBF78CFF424604910290334604
:1046200010465146FBF787FFCDE90C0153460A9A25
:1046300004990298FBF77FFF824600913346424679
:1046400003991298FBF777FF5246009BFBF7CCFECD
:1046500082460B4602460991DDE90C01FBF7C4FED8
:10466000DDE90C23002688463046FBF75EFF524604
:10467000099BFBF75DFFCDE90801434632464FF049
:1046800060408C49FBF757FF82460491DDE9080141
:10469000894A884BFBF74FFF029100904346324610
:1046A00086488749FBF747FF029B009AFBF79CFE71
:1046B000844B7B440F9A03EBC203D3E90023FBF73F
:1046C00093FE009002910198FCF777F80E90039109
:1046D0005046029B009A0499FBF786FE7A4A7A4478
:1046E0000F9B02EBC3030993D3E90023FBF77CFE86
:1046F000039B0E9AFBF778FE88463046039B0E9A82
:10470000FBF713FF099BD3E90023FBF70EFF52468B
:10471000049BFBF70AFF029B009AFBF709FF024686
:1047200000200B46029038462946FBF704FF8246DC
:1047300003912B4638461946029AFBF7F6FE32469D
:104740004346FBF7F8FE5246039BFBF74DFE074638
:104750008A463246434629460298FBF7ECFE054658
:104760000E463A465346FBF73FFE584A884691426A
:1047700021DBA8EB020353EA000210D12A4633469C
:10478000FBF7D3FECDE90310514A524B3846514650
:10479000FBF72AFEDDE90332FCF74AF921D20220B9
:1047A000FFF730FCFFF70EFC0A46214614B062F317
:1047B0001E01BDE8F08D484B28F000429A4210D30C
:1047C000464A08EB020353EA00027FF4C6AD2A46CC
:1047D0003346FBF7AAFE3A465346FCF729F97FF623
:1047E000BCAD0022019228F000403D493D4A01EB5A
:1047F0002051824223DA481C4FF4801121FA00F044
:104800004044394AC0F30A517A44384BA1F2FF318F
:10481000CB4020EA0303C0F3130040F48010C1F141
:104820001401C84012680190B8F1000FBCBF4042AB
:10483000019028463146FBF778FE05460E462A468B
:10484000334638465146FBF7CFFD4FF0000842464D
:10485000274B40460391FBF76EFECDE90C01254A3C
:10486000254B40460399FBF766FE029100902A46CD
:10487000334640460399FBF758FE3A465346FBF74A
:1048800057FE1E4A1E4BFBF756FE029B009AFBF793
:10489000ABFD0746884635E08E9803007AB60B00DC
:1048A000AA0500000000F03FE20500000E05000030
:1048B0000000084009C7EE3FFD033ADCF5015B1438
:1048C000E02F3EBEE2030000A6030000000090407F
:1048D000FE822B654715973C00CC904000346F3F1B
:1048E00001FCFFFF0000E03FF4020000FFFF0F00AB
:1048F000432EE63F396CA80C615C20BEEF39FAFE0E
:10490000422EE63F02460B46DDE90C01FBF76CFD4B
:10491000DDE90C2305460E46FBF707FE3A46434603
:10492000FBF706FE07462A46334605911046194610
:10493000FBF701FE824602462E4888460B460521BB
:104940007844FFF7DAFA52464346FBF7F4FD2A466D
:104950003346FBF7EDFD80468A463A462846314607
:10496000059BFBF7E8FD3A46059BFBF73DFD0591EE
:10497000009000224FF0804340465146FBF7D5FDA2
:10498000074603914246534628463146FBF7D3FD7E
:104990003A46039BFBF741FE059B009AFBF7C5FDDA
:1049A0002A463346FBF7C1FD0022134BFBF7C0FD3F
:1049B000054601980E4601EB00510815002810DC51
:1049C00028463146019AFCF71CF8FFF782FA0428C2
:1049D00008BFFFF7FFFA28463146019AFCF711F8A5
:1049E00005460B4614B02A4658462146BDE8F04D10
:1049F000FBF7A1BD940100000000F03F2DE9F0415C
:104A000006460F46FCF754F8041E0D4618BF012059
:104A1000284320F00040C0F17F6000F1E040C00F6B
:104A20000ED0301C18BF0120384320F00040C0F1E8
:104A30007F6000F1E040C00F04BF0120FFF7E2FA01
:104A400020462946BDE8F08170B50546FBF74DFFCD
:104A5000044620F00040C0F1FF40C00F08D025F010
:104A60000040C0F1FF40C00F04BF0120FFF7CAFAA9
:104A7000204670BD00000000000000000000F03F74
:104A8000000000000000F83F0000000000000000EF
:104A90000000004003B8E23F0000000000000000FA
:104AA00006D0CF43EBFD4C3E033333333333E33F88
:104AB000FFAB6FDBB66DDB3F4D268F515555D53FB4
:104AC00001411DA96074D13F65DBC9934A86CD3F82
:104AD000EF4E454A287ECA3F3E5555555555C53F70
:104AE00093BDBE166CC166BF2CDE25AF6A56113F62
:104AF000F16BD2C541BDBBBED0A4BE726937663E64
:104B000000000000000000000000000000000000A5
:104B10000102030406070809000001000200010069
:104B20000300010002000100040001000200010076
:104B30000300010002000100050001000200010065
:104B40000300010002000100040001000200010056
:104B50000300010002000100060001000200010044
:104B60000300010002000100040001000200010036
:104B70000300010002000100050001000200010025
:104B80000300010002000100040001000200010016
:104B90000300010002000100070001000200010003
:104BA00003000100020001000400010002000100F6
:104BB00003000100020001000500010002000100E5
:104BC00003000100020001000400010002000100D6
:104BD00003000100020001000600010002000100C4
:104BE00003000100020001000400010002000100B6
:104BF00003000100020001000500010002000100A5
:104C00000300010002000100040001000200010095
:104C100003000100020001003031323334353637F1
:104C20003839414243444546003031323334353619
:104C300037383961626364656600666C6F775F63FD
:104C4000616C69625F746872656164006861726456
:104C5000206661756C74206F6E2068616E646C658F
:104C6000720D0A0D0A0068617264206661756C74C9
:104C7000206F6E207468726561643A2025730D0A96
:104C80000D0A0073687574646F776E2E2E2E0A00FD
:104C90007230303A203078253038780A007231305E
:104CA0003A203078253038780A007230313A203096
:104CB00078253038780A007231313A203078253042
:104CC00038780A007230323A203078253038780A45
:104CD000007231323A203078253038780A0072304C
:104CE000333A203078253038780A007230343A2050
:104CF0003078253038780A007230353A20307825FF
:104D00003038780A007230363A20307825303878DA
:104D10000A007230373A203078253038780A00722D
:104D200030383A203078253038780A007230393AF5
:104D3000203078253038780A002070633A203078A7
:104D4000253038780A00206C723A203078253038C7
:104D5000780A007073723A203078253038780A006B
:104D60006D61696E007469646C65000A205C207C6A
:104D7000202F0A002032303036202D2032303230C1
:104D800020436F7079726967687420627920727449
:104D90002D746872656164207465616D0A002D2050
:104DA0005254202D202020202054687265616420F8
:104DB0004F7065726174696E672053797374656DA5
:104DC0000A00202F207C205C202020202025642E1B
:104DD00025642E2564206275696C642025730A00A1
:104DE000284E554C4C29004D617220323020323013
:104DF00032360000F13B0008E93B0008E53B0008C3
:104E0000ED3B0008284E000800000020E8000000EC
:104E1000E43F0008104F0008E8000020380C0000B4
:104E2000F43F0008000000000000000000A24A0457
:104E3000000000000000000000004842000048425E
:104E40000000C8420000C84200001643000016439C
:104E5000000048430000484300007A4300007A43C2
:104E600000009643000096430000AF430000AF43AC
:104E70000000C8430000C8430000FA430000FA43A2
:104E80000000803F00000000000000000000000063
:104E90000000000000000000000000000000000012
:104EA0000000000000000000000000000000000002
:104EB0000000000001000000900000209000002091
:104EC0007800000002000000A0000020A0000020E8
:104ED0002000000005000000B0000020B00000200D
:104EE000300000000A000000C0000020C0000020C8
:104EF0002C00000008000000000C014040000000F1
:104F000008000000000C01408000000000000000CC
:04000005080000ED02
:00000001FF
